:400000000040002011000000290E0000290E000080B500AF00F012FF80B500AF244B12221A6003F08FF9234B180003F0FDFC012003F098F9302002F095FF1F4B1F4A1A6046
:400040001F4B8022D2051A601E4B1E4A126802210A431A601C4B1D4A1A601D4B00221A601C4B1C4A126808218A431A60FA23DB00180002F0C5FF184B180003F03DF8174B20
:40008000A022D2001A60164B164A1A60164B802212061A60154B802212031A60144B40221A60074B8022D2051A60C046BD4680BD30001040001BB70004010B4006000080E3
:4000C0000C020B4078002E407C002E406A2D000064F02E406CF02E40DC050000000301400000014040FF008008010B4000010B402C01014080B586B000AF72B6624B002270
:400100001A601723FB1800221A7025E01723FB181A7813005B009B185B005C4A9B183B613B691A78597809020A43997809040A43DB781B06134318003B691A795B791B0223
:4001400013439BB2190000F0F9FD1723FB181A781723FB1801321A701723FB181B78022BD4D91723FB1800221A7036E01723FB181A7813009B009B185B00454A9B18FB60F3
:40018000FB681A78597809020A43997809040A43DB781B061343BB60FB681A79597909020A43997909040A43DB791B0613437B60BA1CFB68197A5B7A1B020B431380BB1C29
:4001C0001A887968BB68180000F0C8FD1723FB181A781723FB1801321A701723FB181B78002BC3D02B4A2C4B1100180000F0C6FD2A4B2B4A1A602B4B992212041A602A4BA3
:40020000E02292041A60294B992212041A60284B992212041A60274B992212041A60264A254B1B78DBB23C218B43DBB214210B43DBB21370214A214B1B78DBB216210B43AB
:40024000DBB213701E4B18221A601E4B1E4A1A601E4B1F4A1A601F4BC0221A601E4B1F4A1A601F4B8022D2011A601E4BC0221A601D4BD82212041A60FFF7CEFE00F0C0FD29
:40028000C046BD4606B080BD6CF02E40E8610100FC610100286201000862010000000240003003EE00500F4008500F4010500F4020500F4030500F4001700F4000700F4075
:4002C0000000044008000440086CD80008010440D806180000020440080204406D5B58000C020440000304400803044010B5064C2378002B07D1054B002B02D0044800E015
:4003000000BF0123237010BDA81100200000000084610100084B10B5002B03D00749084800E000BF07480368002B00D110BD064B002BFBD09847F9E700000000AC11002000
:4003400084610100280C00200000000090B589B000AF786039607B68262B00D16CE022D8052B00D1A1E00DD8022B00D19FE002D8012B3CD0B6E0032B00D19AE0042B00D155
:4003800099E0AFE0232B00D197E006D8212B00D195E0222B00D194E0A4E0242B49D0252B00D190E09EE0412B00D177E00FD8292B00D18AE004D8272B54D0282B56D091E05C
:4003C0002A2B00D183E02C2B00D182E08AE04C2B5AD005D8422B00D17DE0432B4ED081E0572B00D179E0FA2B00D178E07AE01C23FC18002001F026F9030023801023FB18B7
:4004000000229A711023FB18180004F08FF91F23FB1806221A7006E01F23FB181A781F23FB18013A1A701F23FB181B78002BF3D158E03B68BB6155E02C4B1B78042B50D16A
:40044000012002F073FC002002F0BCFC012002F095FC02F0DFFC02F057FD02F0F3FC02F0EDFE3EE0012002F061FC3BE01C23FC18002001F0E7F80300238033E00E23FB18D2
:4004800018000FF09BFC2DE03B680433180000F0F1F93B68186810F0EFF823E000F09AFA00F064F900F022FC1CE0C0461AE0C04618E0C04616E0C04614E0C04612E0C046DB
:4004C00010E0C0460EE0C0460CE0C0460AE0C04608E0C04606E0C04604E0C04602E0C04600E0C046C046BD4609B090BD3E23002080B500AF03F09EF802008023DB001340CE
:4005000025D0144B1B78032B17D1134B1B685A1E114B1A60104B1B68002B0ED10E4B0A221A600E4B1B7801225340DAB20B4B1A700A4B1B78180002F0F9FB094B1B685A1C67
:40054000074B1A608023DB00180003F081F8C046BD4680BD3E2300202C0C0020300C0020C411002080B500AF02F046FF0E4B180002F07AFB0121012002F080FF0121012053
:4005800002F0AAFF094B1900012003F00BF8012003F096F880235B00180002F0D3FF02F001FFC046BD4680BDF1040000CC0C000090B583B000AF1A4B1B78032B03D0184B18
:4005C0001B78022B27D1FC1D032004F0A7F803002370BC1D03F031FA03002370FB1D1B78032B0CD106F0F0F80300042B04D006F0EBF80300062B09D102F0EAFD06E006F01B
:40060000E3F80300022B01D002F0C8FDBB1D1B78180003F016FAC046BD4603B090BDC0463E23002080B500AF62B62D4B00221A70002002F0C7FB002002F078FB002002F086
:400640009DFB002003F0C6F9FA239B00180002F02DFD03F083F803F09BF8012003F0BAF9012002F0AFFB012002F060FB012002F085FB03F0C3F81B4B1B785BB2DBB2180052
:4006800003F032F903F0CCF8174B180000F068FEFFF768FF04F04EF8FFF78AFF134B1B78022BF7D1124B1B78002BF3D0114B1B68002B0CD00F4B00221A6000F081F804F082
:4006C00039F80D4B1B88012B01D100F0C9F90B4B1B78002BDED0002000F0DAFEDAE7C0461F230020162300204D0300003E2300203A0C0020C41100202223002028230020F6
:4007000080B584B000AF786039600F23FB183A6892781A707B68313BFF3B052B16D89A00104BD3181B689F460F23FB181B78002B10D10D4B01221A800CE00F23FB181B7809
:40074000002B09D1084B00221A8005E0C04604E0C04602E0C04600E0C046C046BD4604B080BDC04688610100C811002090B585B002AF114B180000F0EBFBBC1D3B1D0093A6
:40078000022300220021002000F044FC03002380BB1D1B88002B0AD13B1D1B88002B06D0064B1B88012213439AB2044B1A80C046BD4603B090BDC04601070000C8110020AC
:4007C00090B585B002AF264B1B78DBB2002B43D1244B1B685A1E234B1A60224B1B68002B3AD1204B32221A601F4B1B780533DAB21D4B1A701C4B1B78502B02D91A4B1422AF
:400800001A701A4B1B88012B16D1BC1D184B164A00921A785B781B02134300201B041B0C020C12041343180001230022002100F0F1FC0300238008E0BC1D0B4B01220021D0
:40084000002000F093FB03002380BB1D1B88002B02D0064B00221A80C046BD4603B090BD40230020340C0020380C0020C81100204423002080B584B000AF78600E23FB18AB
:4008800000221A8009E00E23FB1800229B5E9BB201339AB20E23FB181A800E23FB1800229B5E7A6892889342EDDBC046BD4604B080BDC04680B584B000AF786039603B6865
:4008C000FB607B68953BFF3B0B2B00D96BE09A003A4BD3181B689F46FB689B78002B00D065E0374B01221A8061E0FB689B78002B5FD1334B00221A805BE0324B00221A703F
:4009000058E0304B01221A7054E02F4B00221A7050E02D4B01221A704CE0FB689B78002B3BD1284B1B78012B03D1FB68DB78082B07D0244B1B78002B2FD1FB68DB78052BF6
:400940002BD1FB685B681B681B7802221340DBB2002B06D0002002F011FA1C4B01221A7005E0012002F00AFA184B00221A70FB685B681B681B7801221340DBB2002B06D0BE
:40098000002002F0D3F9124B01221A7005E0012002F0CCF90E4B00221A70FB685B681800FFF768FF06E0C04604E0C04602E0C04600E0C046C046BD4604B080BDA061010052
:4009C00022230020390C00203A0C00201E2300201423002090B585B002AF1F4B180001F03BFA1E4B00221A80BC1D3B1D0093022300220721002001F011FC03002380BB1D48
:400A00001B88002B0AD13B1D1B88002B06D0134B1B88012213439AB2104B1A80BC1D3B1D0093022300220421002001F0F7FB03002380BB1D1B88002B0AD13B1D1B88002BD6
:400A400006D0064B1B88012213439AB2034B1A80C046BD4603B090BDB50800002223002090B585B002AF7A4B1B785BB2052B02DD774B00221A70764B1B785BB21A00012328
:400A80009340DBB2180002F043FE02F033FE030019006F4B1B785BB21A0013005B009B1899400B001A006B4B1B68D218694B1A60674B1B785BB2DBB20133DBB25AB2644B0D
:400AC0001A70644B1B685B045A0C624B1A6002F095FE604B1B68DBB2180002F005FF02F09FFE002002F014FE5B4B1B78DBB2002B00D0A8E0574B1B68012213400FD1554BE9
:400B00001B680222134008D1524B1B680422134001D05B2304E0002302E05A2300E059234E4A93704B4B1B68082213400FD1494B1B684B4A134008D1464B1B68494A134055
:400B400001D05E2304E0002302E05D2300E05C23424AD3703F4B1B684022134010D13D4B1B688022134009D13A4B1A6880235B00134001D0612304E0002302E0602300E016
:400B80005F23364A1371334B1A6880239B00134011D1304B1A688023DB00134009D12D4B1A6880231B01134001D0582304E0002302E0632300E06223284A5371254B1A6840
:400BC00080235B01134011D1224B1A6880239B01134009D11F4B1A688023DB01134001D0552304E0002302E0542300E053231B4A9371BC1D1C4B01220021002001F024FA8D
:400C000003002380BB1D1B88002B1CD1BC1D174B124A00921A785B781B02134300201B041B0C020C12041343180008230722002101F006FE03002380BB1D1B88002B02D0FA
:400C40000B4B00221A80C046BD4603B090BDC046212300201823002040230020CC1100201040000020400000390C0020442300202223002080B582B000AF786039607B68A9
:400C8000F73BFF3B052B22D89A00144BD3181B689F46134B01221A801CE0114B00221A8018E03B685B681B68180000F067FD03001A000C4B1A803B685B681B680233180092
:400CC00000F05CFD03001A00074B1A8002E0C04600E0C046C046BD4602B080BDD0610100D4110020D6110020D811002090B583B000AF104B180001F0D1FEBC1D3B1D0222E6
:400D00000021012001F0D8FE03002380BB1D1B88002B0AD13B1D1B88002B06D0064B1B88012213439AB2044B1A80C046BD4603B090BDC046750C0000D411002080B582B0E9
:400D400000AF786039603A687B680021180003F0ADFCC046BD4602B080BDC04680B584B000AFF860B9607A607A68B968FB68180003F093FCC046BD4604B080BD80B586B033
:400D800000AF7860396000233B6100237B612FE07B699B007A68D3181B68BB600F23FB18BA681A70BB68FF229343BB6018E03B695B003A68D3181B781A00BB68D3181900DE
:400DC0003B695B003A68D3185B780B703B6901333B610F23FB181A780F23FB18013A1A700F23FB181B78002BE1D17B6901337B617B69072BCCD9C046BD4606B080BDC0465E
:400E000080B500AF054B03221A60054B03221A60044B00221A60C046BD4680BD3000304030003140000E3F4080B500AF03F0FAFB03001B680C2B00D1FEE7FEE780B586B062
:400E400000AF224B7B61224B3B61204B7B6135E03B691B68FB603B695B68BB603B699B683B6000237B600CE0FB681A68BB681A60BB680433BB60FB680433FB607B680433DF
:400E80007B607A683B689A42EED13B69DB683B6000237B6008E0BB6800221A60BB680433BB607B6804337B607A683B689A42F2D13B6910333B617B69013B7B617B69002BF4
:400EC000C6D103F0B5FBFFF7ADFBFEE701000000F068010080B582B000AF154B144A126801218A431A6000237B600FE07B68032B04D8104B7A689200D35800E00E4B0F4ABE
:400F0000796889008B507B6801337B607B682F2BECD9FFF7EFF80A4B00221A60044B044A126801210A431A60C046BD4602B080BD0000104000000000290E0000000000200B
:400F4000C000002080B500AFC046BD4680BDC04680B582B000AF7860034B7A681A60C046BD4602B080BDC046DC11002090B587B000AF0400080011003B60FB1D221C1A70FB
:400F8000BB1D021C1A707B1D0A1C1A701623FB1800221A80FB1D1B78002B0BD1BB1D1B78002B07D17B1D1B78012B03D13B681B78642B04D91623FB1801221A8020E0FB1D53
:400FC0001B78134ADB00D31802331A880823FB181A817B1D1B789AB20823FB189A800823FB183A681A600823F81800230022002110F08CF9031E03D01623FB1801221A803F
:401000001623FB181B881800BD4607B090BDC046FC630100B0B586B000AF05000C0010001900FB1D2A1C1A70BB1D221C1A707B1D021C1A703B1D0A1C1A701623FB1800227A
:401040001A80FB1D1B78002B07D1BB1D1B78002B03D17B1D1B78012B04D91623FB1801221A8029E07B1D1B78002B04D12E220823FB181A8109E0FB1D1B78134ADB00D3186D
:4010800004331A880823FB181A813B1D1B789AB20823FB189A800823FB18BA6A1A600823FB1800220021180010F0FAF8031E03D01623FB1801221A801623FB181B88180084
:4010C000BD4606B0B0BDC046FC63010090B587B000AF78601723FB1800221A701623FB1800221A70454B1B68002B00D17FE07B689B892E2293426DD11723FB181B78404A2E
:40110000DB00D31802331B885A1E3E4913009B009B189B00CB1804331A6880235B0313404BD07B68181D7A681623FC184023002110F0ECF8030023701623FB181B78002BBC
:401140003FD10C23FB187A6812881A800C23FB181722BA1812789A700C23FB180022DA700C23FB1800225A607B685B68180000F005FB03001A00012313409BB2002B08D0C8
:401180001E4B1B680C22B918982252001000984707E01A4B1B680C22B9183222FF3210009847194B1B78012B0BD1184B1B7802221343DAB2154B1A7003E01623FB180622CB
:4011C0001A70134B1B78DBB201229343DAB2104B1A700CE01723FB181A781723FB1801321A701723FB181B78002B00D17FE71623FB181B781800BD4607B090BDDC1100205B
:40120000FC63010020640100302300202823002047230020B0B586B000AF3C1D20800C0010001900FB1C221C1A70BB1C021C1A707B1C0A1C1A701623FC18BD6A7B1C1A78A7
:40124000BB1C1978FB1C18782B00FFF78FFE030023801623FB181B88002B46D1264B1B78022B05D01623FB180422FF321A803CE02E23002B14D02E235A1E204913009B003B
:401280009B189B00CB1810331B685B68180000F075FA03001A00012313409BB2002B05D11623FB18802252001A801EE0FB1C1B78134ADB00D31802331A880823FB181A81C6
:4012C0000823FB18BA6A1A607B1C1B789AB20823FB189A801623FC180823FA183B1D110018680FF073F9030023801623FB181B881800BD4606B0B0BD3E230020206401008D
:40130000FC63010080B500AF094B00221A70094B00221A70084B00221A7000F013F8074B00221A70064B00221A70C046BD4680BD472300204023002046230020282300202D
:401340003023002080B500AFFFF7FCFD01F086FC00F07CFD01F09CFBC046BD4680BDC046B0B594B004AF78603E23FB1800221A802823FA183D4B1000190014231A0003F0C1
:401380008CF93B4B1B78002B04D1FFF7BBFF384B01221A707B68002B5CD0364B7A681A603E23FB181B88002B29D11023FB181C22BA185A601023FB182022BA181A60102345
:4013C000FB1800221A812023FB181B221A802023FB181B225A802023FB1804221A711C23FB1800221A703E23FC180E23FA181023FB181100180003F079FA030023803E23EA
:40140000FB181B88002B29D13E23FC182823FD18AE231A0118491948194B0293194B0193052300932B0003F0B7F9030023803E23FB181B88002B11D1134B01221A703E239E
:40144000FC18124B3F22342118000FF011FF0300238003E03E23FB1801221A803E23FB181B881800BD4610B0B0BDC04604640100E01100202C230020C8000020F91900001C
:4014800079020000807101003E2300202064010090B593B000AF0200FB1D1A704623FB1800221A80614B1B781A00012313401ED04623FC18FB1D1B7818000AF07BFF030031
:4014C00023804623FB181B88002B10D1574B1B7801229343DAB2554B1A70544B1B781A000223134003D04623FB1828221A804623FB181B88002B03D0FB1D1B78002B2CD054
:401500004A4B1B781A000223134026D0484B1B78042B22D8464B1B781A0013009B009B185B009E2292009A18424BD318591C4623FC18FB1D1B7840480A220AF021FF0300C8
:4015400023804623FB181B88002B06D1374B1B7802229343DAB2354B1A704623FB181B88002B03D0FB1D1B78002B57D02F4B1B781A000C23134051D02C4B1B781A000823CF
:4015800013401FD00823FB1832220021180003F08DF84623FC18FB1D1B7828490822B81832220AF0EDFE030023804623FB181B88002B33D11D4B1B7808229343DAB21B4BF9
:4015C0001A702BE03C23FB1818000A231A00002103F06CF81A4B1B781A0013009B009B185B009E2292009A18124BD318591C4623FC18FB1D1B783C22B8180A220AF0C0FE44
:40160000030023804623FB181B88002B06D1074B1B7804229343DAB2044B1A704623FB181B881800BD4613B090BDC04628230020442300208071010034230020F973010085
:401640000412002090B585B000AF0200FB1D1A70FB1D1B78022B04D90E23FB1801221A804AE0294B1B78042B41D1284B1B78DBB21A00042313403AD1FB1D1B78002B0BD15B
:40168000234B1E221A82224B5B6820221A80204B5B6820225A8010E0FB1D1B78012B0CD11B4B96221A821A4B5B68C822D2001A80174B5B68C822D2005A80164BFA1D1278F1
:4016C0001A700E23FC18124B18000DF0E9FD030023800E23FB181B88002B0DD10B4B1B78DBB204221343DAB2084B1A7004E00E23FB180422FF321A800E23FB181B881800BA
:40170000BD4605B090BDC0463E230020472300206C0C00204623002080B584B000AF78600A00FB1C1A700023BB60BB68002B20D07B689A79BB681A700F23FB1800221A70C7
:4017400012E00F23FB181B780133BA68D3180F22BA18127879688A5C1A700F23FB181A780F23FB1801321A700F23FB181B78052BE7D9C046BD4604B080BDC04680B582B078
:4017800000AF78607B681B789AB27B6801331B789BB21B029BB213439BB21800BD4602B080BDC04690B585B000AF78600F23FB1800221A707B689B890B22934232D17B68EB
:4017C000181D7A680F23FC18402300210FF09EFD030023700F23FB181B78002B1AD17B685B681800FFF7CAFF03001A00022313409BB2002B07D00F4B1B68796882225200D5
:401800001000984706E00B4B1B6879680622FF3210009847084B1B78DBB201229343DAB2054B1A700F23FB181B781800BD4605B090BDC0462C2300204723002090B585B091
:4018400000AF78600F23FC187B681800FFF7AAFF03002370334B1B78DBB21A00012313400CD00F23FB181B78002B07D10F23FC187B681800FFF72AFC03002370294B1B788B
:40188000DBB21A00012313400CD00F23FB181B78002B07D10F23FC187B68180000F0C4FD030023701F4B1B78DBB21A00012313400CD00F23FB181B78002B07D10F23FC18B3
:4018C0007B68180001F044F903002370154B1B78DBB21A00012313401FD10F23FB181B78002B16D00823FB1812229A707B689A890823FB181A800823FB180F22BA1812781A
:40190000DA700823FA187B68110018680EF020FE03E07B6818680EF0AFFEC046BD4605B090BDC0464723002080B582B000AF7860C046BD4602B080BD80B500AF044B0022C9
:401940005A70034B00221A70C046BD4680BDC0464423002080B582B000AF7860C046BD4602B080BD80B500AF01F054F8C046BD4680BDC04680B584B000AF78600E23FB1849
:4019800000221A707B689B79002B1CD10F23FB1800221A7012E00F23FB181B787A68D35C002B04D00E23FB1801221A700BE00F23FB181A780F23FB1801321A700F23FB18A7
:4019C0001B78052BE7D90E23FB181B781800BD4604B080BD80B582B000AF0200BB1D1A80C046BD4602B080BD80B582B000AF7860C046BD4602B080BD80B588B000AF0200FB
:401A00003960FB1D1A70C94B1B78DBB201221343DAB2C64B1A70FB1D1B78412B00D160E123DC212B00D1C6E00DDC022B00D198E002DC012B3BD0E8E1052B00D196E0062BC7
:401A400000D198E0E1E1272B00D1EEE006DC242B00D1E0E0262B00D1F3E0D6E1282B00D1EBE02A2B00D1DBE0CFE14F2B00D1BFE10BDC432B00D175E100DA54E14C2B00D1BE
:401A80008DE14E2B00D18FE1BFE1572B00D1B1E106DC502B00D1AFE1542B00D19BE1B4E1712B00D117E1FA2B00D199E1ADE11423FB1807221A701423FB1800225A7014238D
:401AC000FB18180004F0F2FE1423FB1807221A701423FB1801225A701423FB18180004F0E5FE0023002B01D002F014FE904B1B681800FFF73FFF031E11D08D4B1B68180028
:401B000002F01CFE8A4B1B6800211800FFF704FE874B1B6801211800FFF7FEFD0DE0854B180002F00BFE834B00211800FFF7F4FD804B01211800FFF7EFFD03200DF044FA8D
:401B40001023FB183F221A701023FB1800225A701023FB1818000DF055FA774B04221A7053E13B681800FFF7F5FE4EE13B681A78724B1A7049E13B68BB61BB691B78002B98
:401B800000D03BE1BB695B78002B0BD16C4B0422DA806B4B40229A80694B6A4A1A60BB69674A5A60614B1B78DBB201229343DAB25E4B1A7022E15D4B1B78DBB21A002023B5
:401BC000134000D01CE1604B1B78102B02D15E4B0522DA705D4B1B785B4A110018000DF01DFB03001A000E23FB181A800E23FB181B88002B06D0564B1B680E22BA18110027
:401C000036209847494B1B78DBB201221343DAB2464B1A70F4E03B685A784E4B1A70F4E03B681800FFF7E0FEEFE03B681800FFF7DBFE414B02221A70E7E03F4B04221A7038
:401C4000E3E03D4B1B78022B00D1DBE0374B1B78DBB21A000123134000D1D3E0334B1B78DBB21A00042313400BD0334B03221A702E4B1B78DBB204229343DAB22B4B1A70BB
:401C8000C0E02A4B1B78DBB21A00082313400BD0294B04221A70254B1B78DBB208229343DAB2224B1A70ADE0234B1B78032B00D0A8E0214B04221A70274B1B78002B00D015
:401CC000A0E00120FFF7BEFC031E00D09AE01A4B03221A7096E03B681B881800FFF77AFE93E01A4A3B681000190002231A0002F0D4FC124B00221A70144B1B781A00130006
:401D00009B009B185B009E2292009A18134BD3180133134A100019000A231A0002F0BDFCFFF720FE71E0FFF707FE6EE047230020880C0020800C00203E2300204023002065
:401D400008120020A80B0020000E0020442300202C230020302300204623002080710100342300203B685B88162B05D81E23FB183A6852881A8003E01E23FB1817221A80B5
:401D80001E23FB1819883B681A8800231204120C1B0C1B04134318000EF0E4FB35E03B681800FFF74BFD30E0254B1B78DBB21A000123134003D03B68180000F035FB204BA9
:401DC0001B78DBB21A00012313401DD03B68180000F0BEFE18E03B681800FFF7A5FD14E0184B1B7801221343DAB2164B1A700CE0C0460AE0C04608E0C04606E0C04604E019
:401E0000C04602E0C04600E0C0460D4B1B78DBB21A00112313400ED0094B1B78DBB201229343DAB2064B1A70074B1B68FA1D1278396810009847C046BD4608B080BDC046F9
:401E400047230020282300202C23002080B500AFC046BD4680BDC04680B582B000AF7860034B7A681A60C046BD4602B080BDC0461012002090B587B000AF040008001100AE
:401E80003B60FB1D221C1A70BB1D021C1A707B1D0A1C1A701623FB1800221A80FB1D1B78002B03D1BB1D1B78082B04D91623FB1801221A80BCE0BB1D1B78062B66D89A0099
:401EC0005F4BD3181B689F46FB1D1A781423F9185C4813009B009B18DB00C31802331B880B807EE0FB1D1A781423F918554813009B009B18DB00C3181E331B880B8070E002
:401F0000FB1D1A781423F9184E4813009B009B18DB00C31822331B880B8062E0FB1D1A781423F918474813009B009B18DB00C31824331B880B8054E0FB1D1A781423F918FA
:401F4000404813009B009B18DB00C3180C331B880B8046E0FB1D1A781423F918394813009B009B18DB00C31812331B880B8038E0FB1D1A781423F918324813009B009B184D
:401F8000DB00C31818331B880B802AE0BB1D1B78D91FFB1D1A782B4813009B009B18DB00C31804331B78994216DAFB1D1A78254913009B009B18DB00CB1808331968BB1DF1
:401FC0001A7813005B009B185B002A3BCA181423FB1812881A8003E01423FB1800221A80C0461423FB181B88002B04D11623FB1813221A801CE00823FB181422BA1812883B
:402000001A817B1D1B789AB20823FB189A800823FB183A681A600823F8180023002200210FF074F9031E03D01623FB1801221A801623FB181B881800BD4607B090BDC046BE
:40204000646801003C68010090B587B000AF0400080011003B60FB1D221C1A70BB1D021C1A707B1D0A1C1A701623FB1800221A80FB1D1B78002B03D1BB1D1B78082B04D936
:402080001623FB1801221A80BCE0BB1D1B78062B66D89A005F4BD3181B689F46FB1D1A781423F9185C4813009B009B18DB00C31802331B880B807EE0FB1D1A781423F918AA
:4020C000554813009B009B18DB00C3181E331B880B8070E0FB1D1A781423F9184E4813009B009B18DB00C31822331B880B8062E0FB1D1A781423F918474813009B009B1817
:40210000DB00C31824331B880B8054E0FB1D1A781423F918404813009B009B18DB00C3180C331B880B8046E0FB1D1A781423F918394813009B009B18DB00C31812331B889A
:402140000B8038E0FB1D1A781423F918324813009B009B18DB00C31818331B880B802AE0BB1D1B78D91FFB1D1A782B4813009B009B18DB00C31804331B78994216DAFB1D72
:402180001A78254913009B009B18DB00CB1808331968BB1D1A7813005B009B185B002A3BCA181423FB1812881A8003E01423FB1800221A80C0461423FB181B88002B04D1BD
:4021C0001623FB1813221A801CE00823FB181422BA1812881A817B1D1B789AB20823FB189A800823FB183A681A600823FB180022002118000FF054F8031E03D01623FB1800
:4022000001221A801623FB181B881800BD4607B090BDC046806801003C680100B0B588B000AF05000C0010001900FB1D2A1C1A70BB1D221C1A707B1D021C1A703B1D0A1C73
:402240001A701E23FB1800221A801C23FB1800221A80FB1D1B78002B0FD17B1D1B78022B0BD8BB1D1B78082B07D8BB1D1B78022B03D9BB1D1B78052B04D11E23FB180122ED
:402280001A8063E0BB1D1B78032B16D17B1D1B78022B0DD1FB1D1A781C23F918454813009B009B18DB00C31820331B880B804DE01E23FB1801221A8048E0BB1D1B78032B6D
:4022C00019D9BB1D1B78062B15D8FB1D1978BB1D1B78043B1A005200D21853001A000B009B005B18DB00D31808331A00314BD3180433BB6112E0FB1D1A782E4913009B009E
:402300009B18DB00CB1808331968BB1D1A7813005B009B185B002A3BCB18BB617B1D1B78002B05D11C23FB18BA6952881A800DE07B1D1B78012B05D11C23FB18BA69928868
:402340001A8003E01E23FB1801221A801E23FB181B88012B26D01C23FB181B88002B04D11E23FB1813221A801CE00C23FB181C22BA1812881A813B1D1B789AB20C23FB18A2
:402380009A800C23FB183A6B1A600C23FB180022002118000EF084FF031E03D01E23FB1801221A801E23FB181B881800BD4608B0B0BDC0463C68010080B584B000AF020083
:4023C0003960FB1D1A703B685B681800FFF7D6F903001A00012313409BB2002B03D0CA235B00FB6002E09623FF33FB600B4B1B78DBB201229343DAB2084B1A70084B1B78F7
:40240000012B06D1074B1B7802221343DAB2054B1A70FB681800BD4604B080BD47230020302300202823002090B589B000AF78601F23FB1800221A701E23FB1800221A70F7
:402440000023BB619C4B1B68002B00D1EAE10C23FB187A6812881A800C23FB1800225A600C23FB181E22BA1812789A707B6899891E23FB181A78914813009B009B18DB008E
:40248000C31802331B88994228D10C23FB180022DA707B681B89012B00D095E17B685B681B78002B02D0012B0CD08DE1CB235B00BB61834B1B78DBB201229343DAB2804B9F
:4024C0001A7081E19823FF33BB617D4B1B78DBB201229343DAB27A4B1A7075E17B6899891E23FB181A78754813009B009B18DB00C31824331B88994228D10C23FB180222E2
:40250000DA707B681B89012B00D05DE17B685B681B78002B02D0012B0CD055E1CC235B00BB61674B1B78DBB201229343DAB2644B1A7049E19A23FF33BB61614B1B78DBB225
:4025400001229343DAB25E4B1A703DE17B6899891E23FB181A78594813009B009B18DB00C3180C331B88994214D10C23FB180422DA707B681A1D0C23FB185A60CD235B002D
:40258000BB614F4B1B78DBB201229343DAB24C4B1A7019E17B6899891E23FB181A78474813009B009B18DB00C3180E331B8899420ED10C23FB180422DA707A681E23FB188E
:4025C0001B7811001800FFF7F7FE0300BB61FBE07B6899891E23FB181A78384813009B009B18DB00C31812331B88994214D10C23FB180522DA707B681A1D0C23FB185A6047
:40260000CD235B00BB612E4B1B78DBB201229343DAB22B4B1A70D7E07B6899891E23FB181A78264813009B009B18DB00C31818331B88994214D10C23FB180622DA707B68A9
:402640001A1D0C23FB185A60CD235B00BB611C4B1B78DBB201229343DAB2194B1A70B3E07B6899891E23FB181A78144813009B009B18DB00C3181A331B8899420ED10C23FC
:40268000FB180622DA707A681E23FB181B7811001800FFF791FE0300BB6195E01723FB1800221A701C23FB1807221A701D23FB1800221A7072E0C046101200203C6801004E
:4026C000472300207B6899891E23FB181A78594813009B009B18DB00C318083318681D23FB181A7813005B009B185B00C3181B88994219D10C23FB181C22BA181278DA7028
:402700007B681A1D0C23FB185A60CD235B00BB61494B1B78DBB201229343DAB2464B1A701723FB1801221A707B6899891E23FB181A78404813009B009B18DB00C318083309
:4027400018681D23FB181A7813005B009B185B00C3185B88994213D10C23FB181C22BA181278DA707A681E23FB181B7811001800FFF722FE0300BB611723FB1801221A70B4
:402780001C23FB181A781C23FB1801321A701D23FB181A781D23FB1801321A701E23FB181A78244913009B009B18DB00CB1804331B781D22BA1812789A4205D21723FB185A
:4027C0001B78002B00D17DE71E23FB181A781E23FB1801321A70184B1B78DBB21A000123134017D17B68181D7A681F23FC18402300210EF08BFD030023701F23FB181B781B
:40280000002B0ED10D4B1B680C22B918BA691000984706E01E23FB181B78002B00D11FE600E0C0461F23FB181B781800BD4609B090BDC0463C68010047230020101200206E
:4028400090B58BB000AF3C1D20800C0010001900FB1C221C1A70BB1C021C1A707B1C0A1C1A702623FB1800221A80FB1C1B78002B03D1BB1C1B78082B04D92623FB1801229C
:402880001A80BAE0BB1C1B78042B0CD1FB1C1A7813009B009B18DB0008331A005A4BD31804333B6244E0BB1C1B78062B0CD1FB1C1A7813009B009B18DB0014331A00524B51
:4028C000D31804333B6233E0BB1C1B78062B2BD9BB1C1B78082B27D8BB1C1B78D91FFB1C1A78494813009B009B18DB00C31804331B78994213DAFB1C1A78434913009B00A3
:402900009B18DB00CB1808331968BB1C1A7813005B009B185B002A3BCB183B6208E02623FB1801221A8003E02623FB1801221A802623FB181B88002B5FD13B6A1B88002BD6
:4029400004D12623FB1813221A8056E03B6A5B885A1E2E4913009B009B189B00CB1810331B685B681800FEF709FF03001A00012313409BB2002B24D0254B1B78022B1AD112
:402980003B6A1A881423FB181A811423FB18BA6B1A607B1C1B789AB21423FB189A802623FC181423FA183B1D110018680DF00EFE0300238021E02623FB180422FF321A809C
:4029C0001BE03B6A1A880823FB181A817B1C1B789AB20823FB189A800823FB18BA6B1A600823F8180023002200210EF08FFC031E03D02623FB1801221A802623FB181B88DB
:402A00001800BD460BB090BD3C680100206401003E23002080B582B000AFBB1D01221A70FB1D00221A70FB1D1A78174913009B009B18DB00CB1802331B88002B16D0FB1D3F
:402A40001A78114913009B009B18DB00CB1802331B885A1E0D4913009B009B189B00CB1810331B685B68BA1D12781A70FB1DFA1D127801321A70FB1D1B78002BD3D0C0465D
:402A8000BD4602B080BDC0463C6801002064010080B500AFC046BD4680BDC04680B582B000AF7860034B7A681A60C046BD4602B080BDC0461412002090B587B000AF0400B9
:402AC000080011003B60FB1D221C1A70BB1D021C1A707B1D0A1C1A701623FB1800221A80FB1D1B78012B03D1BB1D1B78002B04D01623FB1801221A8022E03423002B04D1FB
:402B00001623FB1813221A801AE034220823FB181A817B1D1B789AB20823FB189A800823FB183A681A600823FB180022002118000EF0B6FB031E03D01623FB1801221A80E3
:402B40001623FB181B881800BD4607B090BDC04690B587B000AF78601723FB1800221A703A4B1B68002B6AD07B689B893422934204D07B689B893122934260D10823FB1834
:402B80007A6812881A807B68181D7A681723FC18402300210EF0BAFB030023701723FB181B78002B43D17B689B89342293422DD10823FB1801229A700823FB1800225A6016
:402BC0007B685B681800FEF7D9FD03001A00012313409BB2002B03D0FB235B003B6102E0F823FF333B61194B1B680822B9183A6910009847164B1B78012B18D1154B1B781D
:402C000002221343DAB2134B1A7010E00823FB1800229A707B681A1D0823FB185A600B4B1B680822B918FC225200100098470A4B1B78DBB201229343DAB2074B1A701723F7
:402C4000FB181B781800BD4607B090BD1412002030230020282300204723002080B500AFC046BD4680BDC04680B582B000AF786000F050F87B68180000F00AF8032000F08B
:402C800015F800F03BF8C046BD4602B080BDC04680B582B000AF7860034B7A681A66C046BD4602B080BDC0460000002090B585B000AF0200FB1D1A700623FB600B23FC1897
:402CC00000F0BBFE030023700B4B0B4A1268C0218A431100FA1D1078FA68904002000A431A600B23FB181B78180000F0AAFEC046BD4605B090BDC04608E400E080B500AFD2
:402D0000034B802252001A60C046BD4680BDC04600E100E080B500AF034B802252001A60C046BD4680BDC04680E100E080B584B000AF0200FB1D1A700F4B1B68DAB20F2346
:402D4000FB1840218A431A70FB1D1B789B01DBB240221340D9B20F23FB180F22BA1812780A431A70044B0F22BA1812781A60C046BD4604B080BDC0460003044080B584B0C5
:402D800000AF0200FB1D1A700D4B1B68DAB20F23FB187F210A401A70FB1D1B78DB01D9B20F23FB180F22BA1812780A431A70044B0F22BA1812781A60C046BD4604B080BD95
:402DC0000003044080B584B000AF0200FB1D1A700F4B1B68DAB20F23FB1840218A431A70FB1D1B789B01DBB240221340D9B20F23FB180F22BA1812780A431A70044B0F222D
:402E0000BA1812781A60C046BD4604B080BDC0460002044080B582B000AF094B1B68DAB2FB1D7F218A431A70054BFA1D12781A60FB1D1B78DB09DBB21800BD4602B080BD5D
:402E40001002044080B500AF00F054F8054B180000F010F8032000F01BF800F041F8C046BD4680BD692E000080B500AFC046BD4680BDC04680B582B000AF7860034B7A6802
:402E80009A64C046BD4602B080BDC0460000002090B585B000AF0200FB1D1A701623FB600B23FC1800F0C9FD030023700A4B0A4A12680A491140FA1D1078FA68904002006D
:402EC0000A431A600B23FB181B78180000F0B9FDC046BD4605B090BD00E400E0FFFF3FFF80B500AF024B04221A60C046BD4680BD00E100E080B500AF024B04221A60C046BF
:402F0000BD4680BD80E100E080B500AF024B04221A60C046BD4680BD80E200E090B585B000AF78600F23FC1800F087FD030023700A4B7A68D104E02292031140074A1268A7
:402F4000074802400A431A600F23FB181B78180000F077FDC046BD4605B090BD00010B40FFFFC7FF90B58BB000AF78602723FC1800F063FD03002370194B1A680C23FB1817
:402F80001A60184B1A680C23FB185A607B68033B154AD35C1A000C23FB189A60134B1A680C23FB18DA601C23FB18114A1A600C23FA181C23FB185A600E4B1C22BA181A60FE
:402FC0000D4B0E4A1A600B4B1B682723FB181B78180000F036FDC046BD460BB090BDC04608010B4000010B409C68010030001040B6EA000008001040040010401700008084
:4030000080B584B000AF78600023FB60154B154A126801210A431A60134B144A1A60144B134A1268802109020A431A607B68002B12D01023FB600CE0012000F05DF800F061
:4030400019F8031E02D00023FB6005E07B68013B7B607B68002BEFD1FB681800BD4604B080BDC04660F02E4078002E400220000010002E4080B582B000AF054B1B6801225C
:4030800013407B607B681800BD4602B080BDC0460C002E4080B582B000AF0200FB1D1A7001BEC046BD4602B080BDC04680B582B000AF786009E00D4B1B68180000F0B4FC94
:4030C0007B680B4A944663447B607A6880231B029A42F0D8074B1B687A685343180000F0A3FCC046BD4602B080BDC046140E00200080FFFF0C0E002080B582B000AF0200F2
:40310000BB1D1A80BB1D1B88044A12785343180000F08AFCC046BD4602B080BD100E002080B500AF164B164A1268920092081A60144B144A1268920092081A60124B124A15
:403140001268920092081A60104B104A1268920092081A600E4B0E4A1268920092081A600C4B0C4A1268920092081A600A4B0A4A1268920092081A60C046BD4680BDC046A7
:403180000800044008010440080204400803044008040440080504400806044090B583B000AFFC1D00F049FC03002370074B074A126804218A431A6030BFFB1D1B781800A0
:4031C00000F03FFCC046BD4603B090BD10ED00E090B583B000AFFC1D00F02FFC03002370114B114A1268520052081A600F4B104A128892B21A600F4B0E4A126804210A43CC
:403200001A600D4B1B683B600220FFF787FE30BF094B3A681A60FB1D1B78180000F011FCC046BD4603B090BD00000B400C000B4052F1FF0F10ED00E000010B4090B583B045
:4032400000AFFC1D00F0F9FB03002370FFF768FF114B114A1268802109060A431A600F4B0F4A128892B21A600E4B0E4A126804210A431A600C4B0C4A1268FF218A43F121BF
:403280000A431A6030BFFB1D1B78180000F0D9FBC046BD4603B090BD00000B400C000B4050F1FF0F10ED00E02C000B4080B500AF0F4B0F4A126801218A431A600C4B0C4A5C
:4032C000126802218A431A600A4B0A4A126830218A4310210A431A60064B064A126807218A4301210A431A60C046BD4680BDC04600F02E4000FF2E4080B500AF0F4B0F4A0A
:40330000126802218A431A600D4B0D4A126807218A4302210A431A60094B094A126830218A4320210A431A60044B044A126801210A431A60C046BD4680BDC04600F02E40B0
:4033400000FF2E4080B500AFFFF7B0FF044B044A1268802109060A431A60C046BD4680BD00F02E4080B584B000AF78600C4B1B6801221340FB607B68002B02D0012B03D0AB
:4033800005E0FFF793FF06E0FFF7B6FF03E00020FFF780FEC046FB681800BD4604B080BD00F02E4090B583B000AFFC1D00F045FB03002370074B074A1268C02109020A4369
:4033C0001A60FB1D1B78180000F03BFBC046BD4603B090BD00010B4080B500AF054B1A68C0231B02134001D0012300E000231800BD4680BD00010B4090B583B000AFFC1D30
:4034000000F01BFB030023700D4B0D4A12680D490A408021C9010A431A60094B084A126808490A40802109020A431A60FB1D1B78180000F006FBC046BD4603B090BDC04604
:4034400000010B40FF3FFFFF80B582B000AF78607B68022B02D90020FFF71CFE064B1A687B68DB000133DA401300012213401800BD4602B080BDC04610020B4080B584B07D
:4034800000AF786039607B68022B02D90020FFF701FE7B681800FFF7D7FF031E16D10D4B1B687A68D200032191400A00D2431340FB603B6803221A407B68DB009A401300FF
:4034C000FA681343FB60034BFA681A60C046BD4604B080BD0C020B4080B584B000AF786039607B68002B02D07B68012B01D1012300E00023002B02D10020FFF7CBFD7B680C
:403500001800FFF7A1FF031E16D10D4B1B687A68D2000232012191400A00D2431340FB607B68DB0002333A689A401300FA681343FB60034BFA681A60C046BD4604B080BD99
:403540000C020B4080B582B000AF7860144B144A11687A680A431A607B680122134005D0C0460020FFF770FF031EFAD07A6880235B00134005D0C0460120FFF765FF031ED7
:40358000FAD07A6880235B02134005D0C0460220FFF75AFF031EFAD0C046BD4602B080BD10020B4080B584B000AF786039607B68002B02D07B68012B01D1012300E000230F
:4035C000002B02D10020FFF765FD174B1B689B0F9B0701D1C92300E05D231800FFF78CFD124B1B68FB607B681B01114A9A401300DA43FB681340FB600C4B7A6812013968D2
:403600009140FA680A431A60074B1B689B0F9B0701D1432300E01F231800FFF76DFDC046BD4604B080BDC0460C020B4008020B40FFFF000080B500AF034B1B68034A13409C
:403640001800BD4680BDC04610020B400404040090B585B000AF78600B23FC1800F0EDF903002370FFF7B8FE031E04D00123FB60FFF7C2FE01E00023FB607B680D4A134012
:403680007B600D4B0C4A12680C4911407A680A431A60094B1B68FB68012B01D1FFF782FE0B23FB181B78180000F0CBF9C046BD4605B090BD0404040010020B40FBFBFBFF06
:4036C00080B582B000AF7860084B084A11687A68074802400A431A60C046044B1B68044A1340FAD1C046BD4602B080BD10020B400808080080B500AF044B1B680E2213409A
:403700005B08DBB21800BD4680BDC0460401044080B584B000AF0200FB1D1A700E4B1B68DAB20F23FB181F218A431A70FB1D1B781F221340D9B20F23FB180F22BA18127856
:403740000A431A70044B0F22BA1812781A60C046BD4604B080BDC0460002044080B500AF084B0F221A7000F0D9F800F09DF800F0ABF8054B00221A70044B00221A70C0460E
:40378000BD4680BD82000F4081000F4080000F4090B583B000AFFC1D00F04FF903002370134A134B1B78DBB220210B43DBB21370104A104B1B78DBB210210B43DBB213706D
:4037C0000D4A0D4B1B78DBB210210B43DBB21370FB1D1B78180000F034F9FF2000F0D0F800F04AF800F04EF8C046BD4603B090BD92000F4091000F4090000F4080B500AFBF
:40380000064B1B78002B04D1FFF7A8FF034B01221A70FFF7BDFFC046BD4680BD1812002090B583B000AFFC1D00F007F9030023700F4A0F4B1B78DBB210218B43DBB2137022
:403840000C4A0C4B1B78DBB210218B43DBB21370FB1D1B78180000F0F4F800F0A9F800F017F800F01BF8C046BD4603B090BDC04691000F4090000F4080B500AFC046BD467F
:4038800080BDC04680B500AFC046BD4680BDC04680B500AFC046BD4680BDC04680B500AFC046BD4680BDC04680B582B000AF054AFB1D12781A70FB1D1B781800BD4602B02C
:4038C00080BDC04661000F4080B582B000AF054AFB1D12781A70FB1D1B781800BD4602B080BDC04660000F4080B582B000AF0200FB1D1A70C046074B1B78DBB21A00042367
:403900001340F8D0044AFB1D1B781370C046BD4602B080BD61000F4041000F4090B583B000AF01E0134B1B78134B1B78DBB21A0020231340F6D1FC1D00F07FF803002370B4
:403940000E4A0E4B1B78DBB201210B43DBB213700A4A0A4B1B78DBB201218B43DBB21370FB1D1B78180000F06CF8C046BD4603B090BDC04651000F4060000F4091000F40D8
:4039800080B582B000AF7860C046074B1B68002BFBDB054B7A68120204490A431A60C046BD4602B080BDC046000001404000008080B500AFC046054B1B68002BFBDB034BD8
:4039C000034A1A60C046BD4680BDC046000001404000004080B584B000AF0200FB1D1A700F4B1B68DAB20F23FB1840218A431A70FB1D1B789B01DBB240221340D9B20F238B
:403A0000FB180F22BA1812780A431A70044B0F22BA1812781A60C046BD4604B080BDC04600010440000000000230800803D00138FDD1C046C046C0467047EFF3108072B67D
:403A4000704780F31088704780B5ACB000AFF860B960BB1D1A800023A422BA1813600023A022BA181360BB689422BA181360BB1D1A889423FB181B68D318594A934200D931
:403A800094E09423FB181B68DB09AC22BA181360AC23FB181B68DB019C22BA18136077E000239822BA1813600023A822BA18136050E09C23FB181A689423FB181B689A42B2
:403AC0002DD3BB1D1A88A423FB181B689A4226D9FA68A423FB181B68D31819781423FA18A823FB181B68D3180A1C1A709C23FB181B681B78DAB2F968A423FB181B68CB187F
:403B00001B789A4203D001239822BA181360A423FB181B680133A422BA1813600CE09C23FB181B681B78D9B21423FA18A823FB181B68D3180A1C1A709C23FB181B68013357
:403B40009C22BA181360A823FB181B680133A822BA181360A823FB181B687F2BA9D99823FB181B68002B0CD01423FA18AC23FB181B681100180000F043FA0300A022BA181E
:403B80001360AC23FB181B680133AC22BA181360BB1D1A88A423FB181B689A420AD9A023FB181B68002B00D17AE703E00123A022BA181360A023FB181B68002B09D0A0236C
:403BC000FB181B68012B04D001235B42A022BA181360A023FB181B681800BD462CB080BDFFFF010080B582B000AF78600A00BB1C1A80BB1C1A887B681A60C046BD4602B0E1
:403C000080BDC04680B582B000AF78600A00BB1C1A80BB1C1A887B681A60C046BD4602B080BDC04680B584B000AF494B1B78DBB21B02484A1278D2B21343FB60464B1B78A6
:403C4000DBB21B02454A1278D2B21343BB60BB68434A934207D1FB68072B04D1414BBB600423FB6009E0BA68D4231B019A4204D1FB68042B01D13B4BBB603B4BBA681A60A6
:403C80003A4BFA681A603A4B1B78DBB21B02394A1278D2B21343FB60FA6880239B019A4202D0FB68002B01D1334BFB60334BFA681A60334B1B78DBB21B02324A1278D2B278
:403CC0001343FB60FB68304A934206D0FB682F4A934202D0FB68052B01D12D4BFB602D4BFA681A602C4B1B681B097B602B4B1B68AA2B29D17B68012B26D9214B1B78DBB221
:403D00000E2B21D1264B1B78DBB29BB21B0299B2244B1B78DBB29AB2BB1C0A431A80224BBA1C12881A60214B1B78DBB29BB21B0299B21F4B1B78DBB29AB23B000A431A80E9
:403D40001C4B3A0012881A60C046BD4604B080BDD9F0FF0FD8F0FF0FDFF0FF0FDEF0FF0F580B0000580D00006C002E4074002E40DBF0FF0FDAF0FF0F0220000078002E40F1
:403D8000DDF0FF0FDCF0FF0F0F0F000005050000050F000080002E40EC0F00F0E00F00F06DF2FF0F6CF2FF0F84002E406FF2FF0F6EF2FF0F94002E4080B582B000AF020098
:403DC000BB1D1A80BB1D1B881800FFF795F9C046BD4602B080BDC04680B582B000AF78607B681800FFF762F9C046BD4602B080BD80B500AF00F0ECF8C046BD4680BDC04606
:403E000080B500AF00F0F0F8C046BD4680BDC04680B500AF00F0E8F8044B180000F0A2F8032000F0ADF8C046BD4680BD2943000080B500AF034B180000F080F8C046BD46B0
:403E400080BDC0462943000080B500AF0223FF331800BD4680BDC04680B582B000AF78602B231800BD4602B080BDC04680B582B000AF78602B231800BD4602B080BDC04662
:403E800080B582B000AF78602B231800BD4602B080BDC04680B582B000AF78602B231800BD4602B080BDC04680B582B000AF78602B231800BD4602B080BDC04680B582B0B7
:403EC00000AF78602B231800BD4602B080BDC04680B582B000AF78602B231800BD4602B080BDC04680B582B000AF78602B231800BD4602B080BDC04680B500AF2B231800FB
:403F0000BD4680BD80B582B000AF0200FB1D1A702B231800BD4602B080BDC04680B582B000AF786039602B231800BD4602B080BD80B500AFC046BD4680BDC04680B582B0B3
:403F400000AF786000F050F87B68180000F00AF8032000F015F800F03BF8C046BD4602B080BDC04680B582B000AF7860034B7A681A67C046BD4602B080BDC0460000002097
:403F800090B585B000AF0200FB1D1A700623FB600B23FC18FFF751FD030023700B4B0B4A1268C0218A431100FA1D1078FA68904002000A431A600B23FB181B781800FFF734
:403FC00040FDC046BD4605B090BDC0460CE400E080B500AF034B802252011A60C046BD4680BDC04600E100E080B500AF034B802252011A60C046BD4680BDC04680E100E0C7
:4040000090B5A9B000AF7860396000239822BA18136000239422BA1813607B68604A934200D9B1E03B68002B00D1ADE039680C23FB1808338022180000F02FFB7B68594A12
:40404000934201D9584A00E0584A0C23FB181A600C23FB187F225A60554B0C22BA181A60544B554A1A60C046514B1B681B0F1A07F0231B069A4204D14D4B1B68FF2213405E
:404080000DE04B4B1B681B0F1A07A0231B069A4204D0474B1B68FF22134000E000239822BA1813609823FB181B68002B00D06FE09F23FC18FFF7C1FC0300237000F082F86C
:4040C00003009422BA1813609423FB181B68002B05D100F0B5F803009822BA1813609823FB181B68002B32D10C23FB18334A1A600C23FB181A687B681B041A430C23FB18B8
:404100001A602B4B0C22BA181A602A4B2C4A1A60C046274B1B681B0F1A07F0231B069A4204D1234B1B68FF2213400DE0204B1B681B0F1A07A0231B069A4204D01C4B1B687C
:40414000FF22134000E000239822BA1813609423FB181B68002B10D100F0A8F803009422BA1813609423FB181B68002B05D09423FB181B689822BA1813609F23FB181B78E1
:404180001800FFF75EFC03E004239822BA1813609823FB181B681800BD4629B090BDC046FF030000FF010000B6D70001B6D70000080010400400104004000080B6D800001B
:4041C0000500008080B584B000AF0023FB603B1D164A1A60164A3B1D5A60164B3A1D1A60154B164A1A60C046124B1B681B0F1A07F0231B069A4204D10E4B1B68FF2213402E
:404200000DE00C4B1B681B0F1A07A0231B069A4204D0084B1B68FF22134000E00023FB60FB681800BD4604B080BDC046B6E900000423002008001040040010401600008093
:4042400080B582B000AF00237B60144B144A1A60144B154A1A60C046104B1B681B0F1A07F0231B069A4204D10C4B1B68FF2213400DE00A4B1B681B0F1A07A0231B069A4289
:4042800004D0064B1B68FF22134000E000237B607B681800BD4602B080BDC04608001040B6E80000040010401500008080B584B000AF0023FB603B1D164A1A60164A3B1DB2
:4042C0005A60164B3A1D1A60154B164A1A60C046124B1B681B0F1A07F0231B069A4204D10E4B1B68FF2213400DE00C4B1B681B0F1A07A0231B069A4204D0084B1B68FF2295
:40430000134000E00023FB60FB681800BD4604B080BDC046B6EA00000423002008001040040010401700008080B500AF11F016FFC046BD4680BDC046002243088B4274D366
:4043400003098B425FD3030A8B4244D3030B8B4228D3030C8B420DD3FF22090212BA030C8B4202D31212090265D0030B8B4219D300E0090AC30B8B4201D3CB03C01A52413E
:40438000830B8B4201D38B03C01A5241430B8B4201D34B03C01A5241030B8B4201D30B03C01A5241C30A8B4201D3CB02C01A5241830A8B4201D38B02C01A5241430A8B4215
:4043C00001D34B02C01A5241030A8B4201D30B02C01A5241CDD2C3098B4201D3CB01C01A524183098B4201D38B01C01A524143098B4201D34B01C01A524103098B4201D349
:404400000B01C01A5241C3088B4201D3CB00C01A524183088B4201D38B00C01A524143088B4201D34B00C01A5241411A00D20146524110467047FFE701B5002000F0F0F8EF
:4044400002BDC0460029F7D076E7704703460B437FD4002243088B4274D303098B425FD3030A8B4244D3030B8B4228D3030C8B420DD3FF22090212BA030C8B4202D31212AD
:40448000090265D0030B8B4219D300E0090AC30B8B4201D3CB03C01A5241830B8B4201D38B03C01A5241430B8B4201D34B03C01A5241030B8B4201D30B03C01A5241C30A8D
:4044C0008B4201D3CB02C01A5241830A8B4201D38B02C01A5241430A8B4201D34B02C01A5241030A8B4201D30B02C01A5241CDD2C3098B4201D3CB01C01A524183098B424B
:4045000001D38B01C01A524143098B4201D34B01C01A524103098B4201D30B01C01A5241C3088B4201D3CB00C01A524183088B4201D38B00C01A524143088B4201D34B00E3
:40454000C01A5241411A00D201465241104670475DE0CA0F00D04942031000D34042534000229C4603098B422DD3030A8B4212D3FC22890112BA030A8B420CD38901921158
:404580008B4208D3890192118B4204D389013AD0921100E08909C3098B4201D3CB01C01A524183098B4201D38B01C01A524143098B4201D34B01C01A524103098B4201D3BA
:4045C0000B01C01A5241C3088B4201D3CB00C01A524183088B4201D38B00C01A5241D9D243088B4201D34B00C01A5241411A00D20146634652415B10104601D34042002B39
:4046000000D54942704763465B1000D3404201B5002000F005F802BD0029F8D016E770477047C046014B18687047C046A01100200E4B70B500251E000D4CE41AA410A54209
:4046400004D0AB00F35898470135F8E712F03EF9084B00251E00084CE41AA410A54204D0AB00F35898470135F8E770BDD8680100D8680100D8680100E068010030B50024C0
:40468000A24208D0035D651C0C5DA34201D0181B02E02C00F4E7002030BD002310B59A4203D0CC5CC4540133F9E710BD03008218934202D019700133FAE77047134A1088CF
:4046C000810703D08107890F401A001D11791030484381B25088820703D08207920F801A001D800040180A494030098980B2CA0701D0503080B2890706D504495422091F22
:4047000009785143081880B270470000220E00202812002010B501F0B1FF10BD10B501F0B3FF10BD10B501F0C5FF10BD10B501F0C9FF10BD10B500F055FA10BD10B50749D1
:40474000044609780220002907D1204602F00AF8002802D120460AF047FD10BDC00F002070B504460120002C12D02368002B0FD0616800290CD0074D062228892081184669
:404780002968FFF78AFF6968606809780170002070BD000028120020FFB585B0002768460E9D07734F481C460078002802D0082009B0F0BD10990F9801900095029105A825
:4047C00007C800F001F90028F2D16946264603AB84460873002C19D0002115E08A00B75A082F09D990198078002805D0083FB7521878401C187005E0002914D00027B752A4
:4048000090198770491CC9B2A942E7D360460028CED10F98002809D0109901F0DFFA002804D00120C4E701208446EFE701F042FF2D4800214160816005990160218881804F
:40484000022D07D3A1798171A17AC171A1890181218A418100211EE0481C19E082008B00A75AE65ABE46BE4211D26F463E80B4461E190296B678BE7001967646E6521719B9
:40488000029EBB78B3706646A652019EBE70401CA842E3D3491CA942DED3134822460C3000906846037B0799069800F015F90028B8D168460B4C007B60700B480C3001F01C
:4048C00029FF0028AED1084907480C3107F00EFD0028A7D107F028FD0028A3D10121217066E700001C0E00201C120020F8B5054633480E460078002802D002242046F8BDA0
:40490000002E5BD000242F49002D16D02A89D0070DD02868002808D003881B3BE12B04D24088FB2801D81B2801D2012409E0900707D56868002804D1F7E70020088108609E
:404940004860002CDAD11F482F8907811C481B21801D018041800421017119490020891C0870F80705D016480622801D2968FFF794FE1449B80703D56A68114812788270B1
:404980000F480D46801D0860001F486001F010FF0B48801D01F0FEFE28890DF0ABFD28890DF012FF03461033FFF788FE1F21C018890140180249308088809FE701249DE75B
:4049C0001C0E002028120020FFB58446384F1C460020BB883F78054602460646002F11D100290ED0029999420BD36146002908D0002C06D00A99002906D02E4B0B99994203
:404A000002D2012004B0F0BD002144E0AB001F19BF78002F3BD0E35A002B38D07B43591889B22B0000F04AF8050410161C253100A7782388BC46FF27233BEB37BB4222D24C
:404A40006346032B1FD322E0A388002B1FD0302B19D31CE02389002B19D0282B13D316E0A289002A13D01346134F233BBB420AD20DE0268A002A0AD033460F4F233BBB42F7
:404A800001D2964203D901200EE0002001E000280AD16D1CEDB2099B9D42B7D31C2463435B1802998B42ACD89642AAD8AAE700001C0E002079020000BAFF000030B47446DB
:404AC000641E2578641CAB4200D21D46635D5B00E31830BC18470000FFB583B0002469460C801F4606468C80002806D00598002803D004983043800701D0012466E0002FFA
:404B0000FBD03449049809888842F6D3FFF790F9FFF776F900F012FC002855D100F07AFD002851D12C49084601F08CF905042D0C4AD12A480499066081800021C180078196
:404B40000C98007AC00704D0684601F0CCFD040007D10C98007A800703D501A801F0CCFD0446BF1DFEB2002C20D13146059800F05DF804001AD10DF035FE040016D16A4652
:404B80001088928808368518144AF1B29088D288AEB29319984207D3401B801A80B201F041FC050007D000E0FF25012400F05EFA002D04D008E0F8B200F01CF9F6E700F02E
:404BC00081FA07490120087000F0CAFB204607B0F0BD0000200E0020194D000034120020280E002010B503480078012801D101F0BBFA10BD280E002070B5084B0446DA88F2
:404C00009E8800205518B54206D81D68AA182260DA885118D98070BD032070BD34120020014800897047000034120020F0B587B007460D4600208900009006916846FFF73D
:404C4000DBFF844600285DD1304800990160002117E02E4B88001A680629115406D22C4C0419667882185670628805E0C419203CA67A8218567022891B68C018491C428039
:404C8000C9B2A942E5D300242DE0601CC2B2059025E01E4FA30039689600581840887118039604904E88B04217D938466F46FE80B6464F786E4677710297049F4F800168AA
:404CC000039F5E18767879184E700168764659184E800068029F18184770521CD2B2AA42D7D30598C4B2AC42CFD36046002809D168460699FFF780FF8446002802D1054963
:404D000000980860604607B0F0BD00002C0E002000690100300E00207047000010B5002809D005494A68002A05D0011F08788000105801F025FB10BD2C0E002010B50446FC
:404D4000FFF76EFFC0B2801DA0420CD307484068002808D0A100405801F084FA002801D00470001D10BD002010BD00002C0E0020F8B516460D460446FFF752FFC0B2801DC7
:404D8000A04203D20020C0430090F8BDB2B2E9B2684601F08DFA0099481C03D0024AA000526811500098F8BD2C0E0020F8B50746FFF736FF801DC6B20A49002005460C68C5
:404DC0000DE06178002907D06188B94202D32078FFF7B4FF002804D1241D6D1CEDB2B542EFD3F8BD2C0E002010B5002801D0FFF795FF10BD70B506460948002504680BE072
:404E00006178002905D062882078121D0023FFF7AFFF241D6D1CEDB2B542F1D370BD00002C0E0020FFB581B00A9F16000C4620D000F0F2F8054604281BD0002F0CD03846CD
:404E4000FFF7B4FF20492A0151184860002810D03A460499FFF721FC1B4928010E504618778101980570200406D47D20C000444304E0FF2005B0F0BD6404640C00F0BAF89C
:404E80000746042807D000F04FFAA0420BD800F04BFA201A03E0204600F0AAFA0020F06035720020E6E700F03FFA009000F0B6FA00980121001B009000F0ECF802493A013C
:404EC00051180098C860E6E740120020F8B5060116483418217A042903D0E068002802D017E00020F8BD00F01FFA054600F096FA00F0A0F804280CD001010C480F18F86802
:404F00000021451900F0C6F80020F860284600F06FFA6068054D002801D0FFF765FF042020720020A8516081E060DAE740120020FEB500266A46304601232549050169185D
:404F40000D7A042D02D0C96800291BD000211154401CC0B20428F0D300246846005D002830D01B48210108184189476805680291002101604160042241810272C160002EDC
:404F800002D015E01354E3E700F054F804280ED001010F4808180190C6680021304600F079F801980021C160304600F021FA0126002D07D038460299A847002F02D0384675
:404FC000FFF712FF641CE4B2042CC6D3FEBD0000401200200EB5002005216A460090118150810348694600680EF061FA0EBD0000340E0020074A0020010189180B7A042B42
:4050000002D0C968002903D0401CC0B20428F3D370470000401200200549002002015218127A042A03D0401CC0B20428F6D370474012002030B50A4B04200A4C00210A0154
:405040001219157A042D06D0D268002A03D09A4201D808461346491CC9B20429EFD330BDFFFF0000401200207047000030B50020074C05460423020111190B72A5504D60E3
:40508000401C4D81C0B2CD600428F4D330BD00004012002030B5094C00231A011219157A042D04D0D568002906D02D18D5605B1CDBB2042BF1D330BD2D1AF7E7401200206D
:4050C000002070471CB5002469460C70142001902346054A05480EF0EFF904480068401C00D1FF2420461CBD41510000340E00203EB5124A0146FF20002301241268002932
:405100000DD0012914D0042908D104206946009308814B8110460EF0CAF980B23EBD6846009304814381694610460EF0BBF9F4E768460093048143816946EBE7340E0020F6
:4051400070B545890468416800890300FFF7B6FC08280509091E22282628002005F088FF1EE0022908D0C8B22A4621460CF02EFB2046FFF739FE13E002202A4621460CF068
:4051800025FB2946204600F00DF809E000200DF08DFE05E02046FFF7CBFE01E0FEF7C8FE002070BD014B0022DB681847380E002070B5448905680089022803D0032809D022
:4051C000FF2070BD2246094C0023A46829460120A04708E0FFF7A6FA241DA2B200232946022006F036FF002070BD0000380E0020704700000248002141600180418070479F
:40520000380E002070B50C46002186B016460391012802D0022859D116E003A9012006F06DFF01281BD1039D324621462846FFF734FA0095287801900220694608814E81C1
:405240006846FFF7B5FF41E0214D002B686809D0049004A9022006F051FF01281DD0022006B070BD002812D0298840182146FFF714FA28880024801980B228806988091DD3
:40528000884206D12C801348FFF792FF03E00320E6E788421AD96C6018E004986860E278A378110219430B4A698000231060E3565360032313815181A1788170E178C17046
:4052C0006178417021780170042028800020C7E7380E0020801200203EB515460C46022803D004280CD000203EBD0091019002206946088107484A8100680EF0D8F807E0F5
:405300000CF064FA044B0022DB6829462046984701203EBD340E0020380E0020014AD16090607047380E0020034801688068081A0A214843000970478C12002010B5FEF792
:4053400067FD482204490548FFF7A7F903490120C870002010BD00001C6901009016002010B5FEF745FD10BD70B5134C2368002B08D0207B1149C20705D0400840002073C8
:405380008868A08070BD88680B4AA18880B29268814203D90A4D691A091802E0814202D2411A5118A160A080A0689842EAD30EF09BF800F013F870BD8C120020C0102E40CA
:4053C000FFFF000010B508461946FFF7A7FF10BD704710B5FFF780FF10BD000003480021016041608160C160704700008C120020024610B5FF20002A0CD0FFF7EFFF064CC9
:405400000321207B0843207310010A21FFF71AF82060002010BD00008C12002000B504480A21806848430209FFF7D8FF104600BD8C1200200248007B8007C00F7047000046
:405440008C12002010B54B490868002802DA4A4B01221A70022290430860484800694549C00B4031096A0246C907C90F0A4259D0012000F0EDFA3F480E216C30FEF7C2FB69
:405480003E4820218430FEF7BDFB3C4814219C30FEF7B8FB3948FF21C131A430FEF7B2FB3648FF212F31B030FEF7ACFB33483449BC30FEF7A7FB31483249AC30FEF7A2FB37
:4054C00030492E48491CB430FEF79CFB2B482E49B830FEF797FB29482C49CC30FEF792FB26482B490830FEF78DFB24482949A830FEF788FB214828498830FEF783FB1F48FA
:4055000026498C30FEF77EFB1C481921C9029030FEF778FBFEF786FBFEF796FCC0B2022812D01FE000290BD0002101420AD0114801216030FEF766FB0120FEF74DFC97E747
:405540000121F2E7FF2010BD15491648FEF75AFB14481549001DFEF755FB124800210830FEF750FB54200449C043891C0870002010BD000000F02E40480E002000002E401F
:40558000320300002F3F00003102000010520000EC160000FA12000031D000003AE300009956000080012E40F80F000070B50646581C80B245086D00002408E0304600F05F
:4055C000C1F81055000A1119A41C4870A4B2AC42F4D3D80705D0D0182038D15CC47FD454C17770BD30B50A4C002100195B1E07E0541864782502545C2C430480891C89B21E
:405600009942F5DB994201D1515C018030BD000000102E4010B5FF2000F01AFA0F49FF2048700E481021801D41800121417001700A490020C91C4870FFF704FF04000AD151
:4056400000F02EF907210648FEF7CCFA044807211830FEF7C7FA204610BD0000480E0020CC112E4070B5002405465B1E0AE0284600F068F8010A161971702D1D1055A41C3D
:40568000ADB2A4B29C42F2DB9C4203D1284600F059F8105570BD000070B500210A4D5B1E0AE0541864782602545C344346193480001D891C80B289B29942F2DB994202D168
:4056C000515C4019018070BD00102E40F0B50599091FCFB200217E1E0BE0541864782502545C2C43164D45192C80001D891C80B289B2B142F1DBFC0712D01C78515C2402AF
:405700000F4A0C4381180C809C785D78001D210280B2294384182180001D80B2D9780CE059781A7809021143054A84182180001DD9789B78090280B2194380180180F0BDDE
:4057400000102E40014940180088704700102E4010B50B490020487000F0A2F8002000F09DF9002000F08AF907210648FEF73AFA044807211830FEF735FA002010BD00002C
:405780004B0E0020CC112E4010B50C48007801280FD100F0DFFF00F0DDF8002804D10848016A490849000162054802213030FEF729FA02490020C91E087010BD4B0E00204B
:4057C00040F02E4010B50B46062812D006DC01280CD0032801D1FFF7BBFF10BD0A28FCD00B28FAD105480078107010BDFFF712FF10BD1146184600F06DF910BD4E0E00204E
:40580000F8B5244DAC6A0127A007234E002816DA307806280ED1286A384328621F480069F903084381B21D481030FEF7EBF9042000F00EF9174802212830FEF7D3F9E0072B
:4058400018D000F0C9FF01280FD1002001F028F8062000F0FDF81049FF20C91E48707078002802D1686B384368630A4801212830FEF7B8F9E0050BD53078042802D105202D
:4058800000F0E6F80348FF2101312830FEF7AAF9F8BD000040F02E404B0E002000002E4010B503212348FEF7ADF90120FEF784FA20483038406A204C80076178800F890072
:4058C00001431C480C38FEF79DF96078002808D0401E022181401820FEF79EFEC000083800E0B82081B21548FEF78CF91348032109021438FEF786F910481149B830FEF7B3
:4059000081F9612189010F48FEF77CF90D480321001FFEF777F90C490C48FEF773F90B480B496038FEF76EF9084801218838FEF769F910BD70F02E404E0E0020D8102E4088
:4059400090890000041E2E40FF0F000058122E4020900000044800684007400F022801D0002070470120704700010B4000B5FFF7F1FF002805D009480168C908C90001605B
:4059800000BD0748016A490849000162054801690122D2039143016100BD000000010B4040F02E4000002E400849087806280BD148780749002803D1486B400840004863AC
:4059C000C86A01221043C862704700004B0E002040F02E4001480078704700004B0E002002484078022800D001207047480E002000B50300FFF762F8080D050D0B0705077F
:405A0000090D012000BD032000BD042000BD022000BDFF2000BD0000074A9168D26889B2064B92B2994204D105498A4201D1012100E000210170704780002E4033D00000CA
:405A40003FE3000001494870704700004B0E002010B50446FEF7D4F9072C01D9FF2C01D102480470FEF7C4F910BD00004B0E00200149487070470000480E002010B5064AFD
:405A8000012805D01921C9021046FEF7BBF810BD1D21C902F8E7000090002E4010B50A4A141D012808D009491046FEF7ABF808492046FEF7A7F810BD04491046891CFEF752
:405AC000A1F80349491DF3E788002E4031D000003AE3000070B50C460546FEF7B5F9C0B202280E49287804D0FF2810D04C280CD810E0FF2809D10A4AD0680004800F032807
:405B000001D0087807E09069000A553803E00878207070BD4F382070087070BD4A0E002000002E40F0B50122002834D0002932D00424420600D00524792342065B06D21824
:405B400000D0641C034600221EE00C2516466E43124D00277519AF72104F002ABB51696007D0661EB24209D10D4E86197606760E05E05E06760E8027BE1B00E080269B19F1
:405B80008919521C2E81D2B2A242DED303480549006B002288611046F0BD00001815002079020000540E002018B50020694608700A48006900280ED0132149014018047E84
:405BC000684604704F21C900054800F0A7F8A04201D0012018BD002018BD0000540E00209C120020F1B582B000206A4610700299002903D100F09EFE00283AD11E4F002470
:405C00000C2126464E43F519A97A01291DD11B49B859896988420BD14F21C900786800F07DF869460870132279685201891808762A89B9596868FDF707FF00280CD02820DC
:405C40000299002905D0282803D0641CE4B2062CD6D3641CE1B20AE00021A972F0E70C224A43D219927A012A04D0491CC9B20629F5D3FEBD2820FEBD18150020540E002052
:405C8000074900200C2242435218927A012A05D0401CC0B20628F5D3002070470120704718150020F8B50E000446154609D0194F19497868A04202D94018A04201D38D420E
:405CC00001D90120F8BD31462046FEF7D7FC00281ED02A4631462046FEF7DFFCE8B200210C224A43D21913895568EE18A6420BD90126641B1B1B9672834209DA1469C01AAD
:405D0000044AC0B220329676491CC9B20629E7D30020F8BD1815002079020000034610B50020024604E09C5C2018521CC0B292B28A42F8D310BD000070B500F05FF8084C0D
:405D4000064A216907480D46FEF7A7FC05492846FFF7E8FEFFF728FF207070BD79020000540E00209C120020002070470020054A002902D0012902D002E0906000E0D060B3
:405D800000207047540E002070B5084C154608460549E26889182A46FEF77FFCE0684019E06028B270BD00009C120020540E00203EB50A226946FFF7E7FF044606480A22A9
:405DC00000686946FEF75AFC002802D00020C0433EBD20463EBD0000580E0020002802D0044A914201D2FF20704703494A6108610020704779020000540E002002480021DF
:405E00008160C16070470000540E002070B5074C15460548A26880182A46FFF743FFA0684019A06028B270BD9C120020540E002010B503490A220968FFF7E8FF10BD0000AD
:405E4000580E002010B50F4A002313600E4A13600E4B18600E4801600E49012008600E490860000290600E490C4808600D4914300860FF381538506000F0BCF800F0CAF964
:405E8000002010BD880E0020700E00209C0E0020A00E00208C0E00207C0E002060160020800E0020940E0020014610B50020002910D0094B1A689C685118A14209D25868A9
:405EC000196080188A0704D08A07920F891A091D196010BD002010BD700E0020F8B50024164E671E321F3D463168136806E01422624310328A58521C1BD0641C9C42F6D359
:405F00006A1C14D02C461422544322460C3288500C214843FFF7C8FF3168002808510AD031680020103408517068401C70602846F8BD2546E4E73846F8BD0000800E00203D
:405F4000F3B50026F64381B000281BDB1E490968884217D80299002914D01B4F142204463F1D54432546396810354859401C09D0FDF746FF38682F1F4159C359994203DBF8
:405F8000FDF736FF3046FEBD214608310091465801590C20704308180C220299FEF77DFB0948761C001D0068C159B14200D100260549009A091D865008684159491C4151D8
:405FC000FDF716FF0020FEBD7C0E0020002803DB07490968884202D90020C043704704491422091D0968504310300858704700007C0E0020F0B500200D4A451E0346171F21
:4060000050600FE014260146714314680E1DA3510C461668083433511668083435511468401C635039688842ECD30020F0BD0000800E0020F3B50026F64381B0002841DB75
:406040002349096888423DD8029900293AD0204F142204463F1D54432546396810354859401C2FD0FDF7CCFE3868415900292BD0211D009146580C21005971430F46C11975
:406080000C220298FEF709FB11480021001D0068761C00590C34C0190160416081600C48001D00680159B14200D100260849009A091D865008684159491E4151FDF798FEA8
:4060C0000020FEBD3046FEBDFDF792FEFAE700007C0E0020FEB504460D4600201E49089E0860471E009001900290002C11D0486885420ED2002A0CD0002E0AD0642E08D8A4
:4061000008460C3001681C2068430C18207A002801D03846FEBD0120226020721846FFF7DDFE6060401C13D06681A6810A4827610C3067610179A94200D2057100216846CA
:4061400001810A462846029B00F040F82846FEBD00202072DDE70000880E002038B50124009400F039F838BDFEB50027164EFF433D4600240EE01C20316860430818017AE1
:40618000002906D04068FFF721FF002801D0254603E0641C3079A042EDDA681C12D01C2130684D434419FDF72BFE69466068FFF741FF0546FDF71CFE002DD9D121686846B0
:4061C0008847D5E7FEBD0000940E002038B50024009400F001F838BD1FB500220C49541E0A60002811DB496888420ED808491C220C31096850430818406801A9FFF7A0FEA2
:40620000401C02D0002004B010BD2046FBE70000880E0020F0B50021114A4D1E174611710C3F0B46BD6016E008461C2460431668041D355114680646235014680836A35534
:406240001468361DA353044616680A34335318301468491C255078688142E5D30020F0BD940E002038B500210091002811DB0F49097888420DDA0D4D04010C352968085976
:40628000002807D0201D0818694600F06FF9002801D0002038BDFDF7B3FD28680F34015D491E0155FDF7A4FD009838BDA40E0020F7B582B0002502986E1E06602E48D21CF4
:4062C000024017462D4A2C4610460C380178106805E02301C358002B0FD0641CE4B28C42F7D3711C28D03401211D40180191039900F02AF900281FD101E02646F1E71F487A
:40630000016820460C300F521C480399026820460E30115419480399026820460F3011540398784300F0A0F8144900280968085102D00024009011E001251AE00F48016889
:4063400001980818009900F02CF9002801D0012502E00098C0190090641CE4B203988442ECD3002D05D10298066004480179491C0171284605B0F0BDFCFF0000B00E002035
:40638000F8B50D4600216A468C461180002839DB23490978884235DA214B04010C3319680A59002A2ED020460C300B5A801C0E5C184670438018954224D3854222D200208C
:4063C00006E007465F43BF18AF4206D0401CC0B2B042F6D36046002814D0114E271DC8190C366A46294600F006F900280AD168460088012808D030682946C01900F0D1F848
:40640000002803D00120F8BD0020F8BDFDF7F8FC30680F34015D491C0155FDF7E9FCF3E7A40E0020F8B50F46002400F031F8002817D10C4900220B460C334A600EE0210145
:406440001D680E466A501D680C36AA53B61C1D680F31AA551D68641C6A54E4B2BC42EED31A71F8BDA40E002000280BD0C01C074A81085068890053884118994203D8936826
:40648000516018187047002070470000A40E0020F8B5064600200F4D009029700C0121466846FEF7A9FB00280CD129460C3100980860301B001F84B221466846FEF79CFB50
:4064C000002801D0FF20F8BD6C800098A8600020F8BD0000A40E0020F8B5002827DB19490978884223DA174C05010C342168485900281CD028460C30085A009028460E30EC
:406500000E5C401C0E5420682F1DC01900F064F800280CD12068002445590EE0094829460C300068C01900F03CF8002801D00120F8BD00982D18641CE4B2B442EED3002003
:40654000F8BD0000A40E002030B50D4604000BD0A800FFF789FF6060002805D000202570C0436080002030BD012030BD70B50D46040005D0002D03D00220205E002801DAF3
:40658000012070BDFDF73CFC0221615E60688900405828606088401E6080FDF729FC002070BD70B50D46040007D0002D05D002212078615E401E814201DB012070BDFDF774
:4065C0001FFC6088401C00B26080616880000D50FDF70EFC002070BD10B5040009D0227800216068FEF762F80020C0436080002010BD012010BDF0B500231D46002802D042
:406600000224045F0AE00120F0BD46689F00F6598E4201D1012503E05B1CDBB29C42F4DA15700020F0BD00000148007870470000B80E00207CB505460024FEF773F8A87951
:406640006946087000A8062229460130FEF725F80021684604F0D2FF0C2806D0072806D01F2806D0122806D006E0022404E0042402E0272400E0012420467CBD014801214D
:40668000417270479817002010B502280BD0032802D0042809D102E000F0A6F905E000F051FAFF2801D100F061FAFFF793F9FFF79FF910BD10B500F089FAFFF78BF9FFF77A
:4066C00097F910BD70B504460025FEF72BF8002C06D0A079012803D8214602F017FE00E00125284670BD01460120002902D05020088000207047000001460120002905D0CB
:4067000003485422007850430880002070470000BA0E002010B502460D49FE204870032410460DF0E7F9002810D10DF08BF900280CD105F03FFD002808D100F057FC002887
:4067400004D105F001FA002800D10024204610BDB80E002002480021018280210180704700102E4070B50025044600280ED0A07901280BD8FDF7D6FFA0790028204602D0D8
:4067800003F0A0F903E003F075F900E00125284670BD0000014610B50120002904D006220248FDF77AFF002010BD0000C40E002001460120002903D00878024908700020B9
:4067C00070470000BA0E002010B5FFF703F9012801D1FFF705F910BD0148007A704700009817002038B504460120002C20D0617801291DD800290BD0FF25E535FDF792FF0B
:406800000C4828180088C0B22070072803D00EE0FF25CD35F2E70020694608706846FFF7FBF869460878012801D108202070002038BD000000102E4010B507480024807BC5
:40684000002806D00448203002F062F9012800D1FE24204610BD0000D8160020014A002192681047B80E002008B500226B461A7026280CD0094A342852680BD0352805D176
:40688000900703D50021352005F070FD08BD19462620F9E7D007F9D03420F5E7B80E0020014908727047000098170020F8B504460120002C26D06178012902D92278092A62
:4068C00020D8002905D0FF25E5352078092803D004E0FF25CD35F8E708202070FDF722FF2078114F114E08280DD00020FFF7D6F870780128207810D00D4969180880FE20C4
:4069000070700020F8BD0120FFF7C8F80720B8810549203188800120F2E7B8810248217820308180EBE70000C0112E40B80E002000102E4010B509480024807B00280BD0B0
:40694000FFF748F8062801D0032800D12824FFF773FFFE2800D12824204610BDD816002070B50E46050001D0002400E00C4C002C11D0E28A500609D5D107C90F022003F091
:406980003FF9E08A40218843E08204E0D107C90F012003F035F93146284602F013FE70BDF8160020F8B50546002004460D4E009013E022466946284601F002F9009800281D
:4069C00001D00DF079F8A878214602F0DDFBA878214602F0CBFB641CE4B2308AA042E8D8F8BD0000C4170020F8B54E4CFEF7F2FF012847D14C480078002843D002F06AFD98
:406A000000283FD004F09CFA00283BD0474E7078C00703D000F01CFD012833D0307E00287DD17078002500285BD0000706D540488089070B00F02EF9384370D13B484178FE
:406A4000684604F0D3F821793A4CA2788918C9B2814262D802F03EFD002860D0344860300789324E203602F07FFB6846008802F0A9FB02F045FC30490988884203D101202B
:406A8000FEF7E6FF4BE02D49012008702748807B00281DD0002F1BD04036F07E002817D123486030008821494000C031498981420AD26078002807D103F0D0F82049088A18
:406AC00003221202104308822078002800D0257002F0AEFB0120FEF7B5FF00F025FC174C15E002F0F7FC002819D0102402F008FC214602F0F1FA02F065FB104C01202070CA
:406B000002F096FB0020FEF79DFF00F00DFC20780128B4D1FEF72AFF25700020F8BDFF20F8BD0000D0160020480E0020D8160020A0102E40DE0E0020F00E0020CA0E0020BC
:406B4000E0112E4010B50848FF244078002809D102F0C0FC012805D1FEF716FE0720FEF777FF0024204610BDD816002038B5FEF731FF012801D0002038BD02F0ABFC002835
:406B80000AD0114C6078C00703D000F061FC012802D0207E002801D0FF2038BD617800290FD0684604F022F8022806D96846008802F008FB012002F045FB0320FEF748FFB6
:406BC000D9E70020F7E70000D816002038B51E4CFEF700FF042813D0052811D0062812D003282AD007280AD100206946087002460120FEF7E7FDFEF7EDFE0128FBD138BDCF
:406C000000F0B2FB38BD02F035FB00F0ADFB02F0B1FB8007800F0228F4D10C4841880029F0D05B21095D0029ECD101210170A07D0140022002F0E4FF38BD02F01FFB01208D
:406C4000FEF706FF38BD0000F8160020DE0E0020F8B50646002403F041F80546304603F057F803460A480021068A0DE001228A401046174628401F40002803D0002F01D103
:406C8000224394B2491CC9B28E42EFD82046F8BDC417002070B500252C460A4E03E0002C01D0002000E030460079002803D02046FFF7CEFF0543641C2406240EEFD0284644
:406CC00070BD0000F81600201CB50020694648706846FFF787FD01AA69460A20FEF772FD6946042008561CBD70B50D4601F048FB04000BD02079002808D0FDF713FDE17846
:406D0000A0782A4602F0E4FC002070BD022070BD0148007870470000D01600204030C07E002800D00120704700B500F001F800BD902148430749084A40186030417F491C1B
:406D4000C9B24177D289914201D300214177C8B270470000D8160020C417002013B501F00FFB04000BD001F0ACFE002807D0214601AA0A310620FEF725FD00201CBD0220EA
:406D80001CBD000010B50C4601F0FAFA00280AD001F097FE002806D0224604490A20FEF711FD002010BD022010BD0000B9160020F3B581B0074601460026029802F086FF27
:406DC0000446002F01D0002500E0154D002D21D0284601F00BFB032C04D13946029802F0D1FF06463846029902F0C0F9032C06D0002C10D00121384601F0FEFB03E031467B
:406E0000384603F0BDF9284602F09EF80221284602F0B4F8FEBD3846029902F0A7F9FEBDF816002010B5044600F066FA002804D103F070FE002801D00C2010BD2078611CF3
:406E400002F048FDFF2801D01F2010BD02F08EFDFF280AD02178621C02F010F9044821780068026B601C904710BD072010BD0000040F002010B503F04DFE002801D00C201E
:406E800010BD02F009FD03480068C06A8047002010BD0000040F002070B50D46044610210CF04AFD1021601806460CF045FD334610221946204603F05BFE102130460CF081
:406EC0003BFD02202870204604F074FD70BD0000F8B504464078217802028006870FE0781143A67809050002090D0643084601F047FA00210546F2B2002812D0002C10D061
:406F0000022F0ED0032F0CD0002A0AD00279092A07D0002A05D0134A5A23527E1B5C9A4207D82889002104F07AFC20460CF0C4FDFF21002914D10C48224600682946436904
:406F400030469847C0B2FF280AD128464030817EF2B2491C8176FF232146284600F0E3F8F8BD000090160020200F00200020704710B5044603F0CEFD002801D00C2010BD49
:406F80002078611C02F0A6FCFF2808D002F0DEFB044821780068426B601C904710BD1F2010BD0000040F002010B500F06BF904F0CBFD002010BD10B5044600786178E27889
:406FC0000843A17811430843217908436179084305D003F091FD002803D00C2010BD122010BD204602F06EFD002010BD10B5FCF72BFF02F095FE044803F0F0FE02F0B0FB5A
:40700000012000F003F810BDA0160020F1B586B003A8009005A8019028489F22817A114081726846FDF79CFB002845D169460989C90705D0224806990068C268684690475F
:4070400069460989890706D5002835D11D480068816A0698884700282ED11B4E0025757075737571F575357675767575B570F570B5713746F5730120D03738731F20F880A0
:40708000FF2130467972A0300176457600F0F0FA00242046069901F0BFFC002803D1641C2406240EF5D0FD720749BD72B573C0310D704D704D600D7207B0F0BD901600206A
:4070C000200F0020040F0020D816002070B505460E46084602F002FE0446304602F018FE0121A9400A46224001400A4301D0012070BD002070BD10B50446084602F008FE28
:407100000121A140014201D0012010BD002010BD10B5FEF75FFC032804D102F0AFF80120FEF796FC10BDFEB51C4616460F46054601F00AFFA878FFF7F7FD024601903346D3
:4071400039460094284600F00DF8002808D1A8780199FFF705FCFF2C02D138460CF0ACFCFEBD0000FFB585B005460E980C46FF2810D02B49C00009680A5840180179C079C7
:407180005278814201D9012601E09006860F6846038108E06078A1788006860FE0780002014368460181284601F096FC070007D021462846079A00F097FC384609B0F0BD95
:4071C000304600F045FD04AE0346039002AA29460096204600F0D1FB3C20405D002818D0284601F079FC012813D0684600890096C0B20190A878231DFF22079902F096F92B
:4072000068460089039BC2B2A878079902F0D6FCD3E7684600890021C0B20091E9E700001C0F0020F8B5002600253046FFF710FD07001DD090201149704340186030447F84
