:400000000040002011000000010800000108000010B500F0FDFB0000F8B572B6802500244C4EED0034602A0021004B4802F08EF82A002100494802F089F8EE22484B120677
:400040001A6099230621474A1B041360464AC4201360464A80021360454A01251360454A454F1360454A13780B431370D823444A1B041360202243490A6043490860434918
:400080000A60FF21424A11604249434A11608021424A09021160C121414A1160414A13601222414B1D60414B1A6001F031FB404801F04AFC280001F037FB302001F0FEF909
:4000C0003C4A3D4B02211A6080233C4ADB053B601368FA200B431360394A3A4BC0001A600822394B1C6033689343336001F038FA364801F02BFAE822C821354B52011A60F4
:40010000344B354A49011A60344A28001160344A1A608222334B12061A608022324B12031A604122314B1A60314B013A1A608023DB053B6003232F4A13602F4A1360802244
:400140002E4B12061A602E4B1D602E4B1C6000F049FBF8BD6CF02E4000300F4000400F40000002400001024000500F4010500F4020500F4030500F400C020B4000700F404F
:40018000080004400001044008010440180104400002044092245900080204400C02044000030440080304401803044030001040001BB7000600008004010B4078002E400C
:4001C0006A2D00007C002E4064F02E40DC050000040301400000014041FF00800003014040FF008008010B4000010B401801014004010140300030403000314000003A4094
:4002000000033A40000E3F4010B5064C2378002B07D1054B002B02D0044800E000BF0123237010BDA011002000000000103C0100084B10B5002B03D00749084800E000BFD0
:4002400007480368002B00D110BD064B002BFBD09847F9E700000000A4110020103C0100200C00200000000013B50C00282836D00ED8262819D02ED801283ED1002000F0F2
:40028000BDFC00236A466846937101F09BFF34E0432828D04C282AD041282ED100F09EF900F0EEF800F082FA27E0144B1B78042B23D1012001F086F8002001F09BF80120EE
:4002C00001F08CF801F0AAF801F0DCF801F0C4F801F0AAF911E0012001F074F80DE0002000F08CFC09E068460DF0AEFA05E0081D00F01CF920680DF005FF13BD17230020FE
:4003000010B501F0D5FA43051AD50E4B1B78032B0ED10D4B1A68013A002A01D01A6007E00A2201201A601A795040187101F04AF88020064AC00013680133136001F0C2FA72
:4003400010BDC04617230020240C0020BC11002010B501F01DFA0C4801F020F80121080001F03AFA0121080001F04CFA0749012001F07AFA012001F0CFFA8020400001F0B7
:4003800057FA01F0F7F910BD01030000CC0C000070B562B6012001F02DF8012001F012F8012001F01BF8244800F060FBFFF7D0FF01F00CFF214C2378023B012B1DD80320AC
:4003C00001F0F8FE060001F0C8FA0500032E0BD103F040FF042802D101F0FCF80AE003F039FF062806D1F7E703F034FF022801D001F0E2F8280001F0B4FA2378022BD7D11A
:400400000F4B1B78002BD3D00E4B1A68002A0BD000221A6000F050F801F0D8FE0A4B1B88012B01D100F00AF9084B1B78002BBFD0002000F06FFBBBE769020000172300201C
:40044000350C0020BC110020002300200423002098228B785200904204D03222FF32904206D009E0002B07D10122044B1A8003E0002B01D1014A13807047C046C01100205E
:400480001FB50B480E2400F00FFA00226C44009402231100100000F027FA002807D12388002B04D00121034A13880B4313801FBD51040000C011002013B5184B1B78002B8D
:4004C0002AD117490B680A00013B002B01D00B6022E032230B600B790533DBB2502B00D91423104C13712388012B0BD10E490432009248780A78000210430022110000F07F
:400500005BFA05E00021131D0800012200F0D2F9002801D00023238013BDC046182300202C0C0020C01100201923002000238288934202DA01331BB2FAE770479538FF383A
:4005400010B50C00062843D801F03CFC040B111317191D008B78002B3AD101221D4B1A8036E08B78002B33D11A4A138030E0002200E00122184B1A702AE0002200E00122CA
:40058000154B5A7024E08B78002B1ED1124B1B78012B03D1CB78082B17D104E0002B14D1CB78052B11D1636800201B681B789B0700D4012000F012FF012063681B681B78BE
:4005C000034200D0002000F0FDFE6068FFF7AEFF10BDC04600230020340C002030B5154885B00E2500F000FD0020134C6D442080022300950200072100F034FD002806D18F
:400600002B88002B03D001222388134323800022009502230421100000F024FD002806D12B88002B03D0012223881343238005B030BDC0463D05000000230020F7B500F0E0
:40064000E5FE424C00280AD12378002B05D0012B07D13922E2703E4A5360013300E0002323703C4B1B78002B6ED1394A53681600013B002B01D0536066E00A23364F536047
:40068000364D3B782B7001F055F9C0432022C0B238702B00104204D02978114201D1042328E01022104204D01978114201D1052320E00822104204D01978114201D1062320
:4006C00018E00422104204D01978114201D1072310E00222104204D01978114201D1082308E00122104204D01B78134201D1092300E000230021E371E379651CEB700800EC
:400700003300012200F076FC011E1DD1144C00956278237812021A4310000623072200F067FD011E03D000220E4B1A800CE0A870E870009560782378000218430722062349
:4007400000F056FD0028EED1F7BDC046C2110020340C00201823002002230020032300201923002000230020F823FF3370B50D00984207D00133984208D0023B012298426D
:4007800010D100E00022084B1A800BE04B68186800F06BFA044C6B6860801868023000F064FAA08070BDC046CA11002013B50B4800F07EFD6B469C1D23000222002101202C
:4007C00000F07CFD002807D12388002B04D00121034A13880B43138013BDC04669070000CA110020054A1368002803D0802109060B4301E05B005B081360704780033A4031
:4008000010B501F05FFC03680C2B00D1FEE7FEE7F8B500250F49104B01394A1C14D000221F685C689E68A018B24203D0B858A0500432F8E70200DE68141AA64201D020C249
:40084000FAE710330139E8E701F042FCFFF7A0FDFEE7C04601000000D040010001210D4A70B5136814008B43136000230A4D0B4E0B489A002900032B00D8B1580133815021
:40088000302BF6D1FFF7C8FB012223681343236070BDC0460000104001080000000000000000002070470000014B18607047C046D01100201FB50124002812D1002910D1E3
:4008C000A2420ED11A78642A0BD82C2201A8028101930A000B0084800EF05EFA441EA04184B2200004B010BD1FB504000120002C14D1002912D1824210D801A8002A01D134
:400900002E3200E02D22028100228380069B110001930EF00BFA431E984180B204B010BD7FB5204E05003468002C37D0838900242E2B33D1D8231C4A9B00D3580634019352
:40094000DB0226D5043040232A0000210EF024FA041E1ED12B8802AA1380130003909870D870686800F081F9C30704D59820336802A9400003E03220336802A9FF30984704
:400980000A4B1B78012B04D10221094A13780B4313700121074A13788B431370200004B070BDC046D0110020303C01000C230020042300201C23002070B50C001E0086B03E
:4009C00001AD288011000A9B32002000FFF772FF00281ED1104B1B78022B15D1E5230F4A9B00D358586800F040F9C3070FD50C4BE4001C19638803A90B810A9B28680393FE
:400A00008E800DF029FB04E00420FF3001E08020400006B070BDC04617230020303C0100143C010010B5FFF73DFF00F0A5FC00F0D9FA00F03BFC10BD10B50024064B1C7089
:400A4000064B1C70064B1C70FFF7ECFF054B1C70054B1C7010BDC0461C230020182300201B230020042300200C23002030B591B0050014221E490BA801F05FFB1D4C01343E
:400A8000E37F002B03D1FFF7D7FF0123E3770120002D2BD000211B24174B08A805AA1D60018106AB117016311C805C806944173C426008931C7101F065FC002816D10F4BAC
:400AC000AE2202930E4B1201019305230D4900930D480BAB01F0ACFB002807D101220B4B34211A700A483E320EF008F911B030BD1C3C0100D41100200823002079020000F2
:400B000080490100C0000020E50C000017230020303C010070B50126314C8EB023780500334258D009F08CF9002806D123781A00B24322709B074ED52820002D4DD00226D7
:400B40002378334213D0274B197804290FD80A225143254B25485918254BC9182B0009F055F9002805D12378B343237003E0002801D0002D31D00C23217819422DD0082620
:400B800031400FD03222002101A801F0DFFA2B003222184901A809F039F900281DD12378B34316E00A2601A8320001F0CFFA124B32000233D97F0C4B714359180C4B01A84F
:400BC000C9182B0009F022F9002806D1042223789343237001E00020B1E70EB070BDC0460423002019230020804901000D23002079020000F94B0100D4110020020010B5D9
:400C00000120022A27D8144B1B78042B21D1134C217819421DD1124B002A04D11E211F301986596A06E0012A06D19621C8201986596AC000088048800A49203318000A7097
:400C40000CF074F8002806D1042223781343237001E00420FF3010BD172300201C2300203C0C00201B23002070470378407800021843704770B58389040000250B2B1AD16A
:400C800029000430353322000EF086F8051E0DD16068FFF7EAFF094B21001B68820702D58220400001E00620FF3098470121044A13788B431370280070BDC04608230020E8
:400CC0001C230020002382799A4208D1821D0378002B03D101309042F9D100E00123180070470000F0B50126A04B85B01A78040032430D001A701F00272800D196E013D8DB
:400D0000062866D007D8B04224D0052800D01EE10A78974B5BE0242857D0262800D187E0212800D013E166E0432800D1C8E007D8412800D1ABE000D9BEE0282842D006E15B
:400D40004E2800D1F2E0FA2800D1FCE04C2800D0FDE0BDE0072303AE337000233000737003F0EAFA072330003370747003F0E4FA804B1B6818000093FFF7A4FF0190002845
:400D80000BD0009801F026FA7A4B00211868FFF76BFF784B2100186808E0774801F01AFA01997548FFF760FF21007348FFF75CFF03200BF04FFE3F2333700023300073705A
:400DC0000BF066FE04226D4B01E04A786C4B1A70BDE00B78002B00D0B9E04B78002B07D10422684BDA803C329A80674A4B601A603B78012236E01B789B0600D5A7E063499F
:400E00000B78102B01D10B3BCB70614B18780BF04BFF03A90880002803D05E4B36201B68984701223B7813433B7090E00222CAE7524B1A780092022A00D188E03A78324228
:400E400000D184E004223978114203D0032119703B7807E03B781B0706D50423474A137008223B789343DFE7009B032B6FD1434A01331370484B1B78002B68D10120FFF7A7
:400E8000BDFE002863D16A463C4B12789FE7404E0222300001F051F90022354B31781A700A3251433D4B3E4859183E4BC91801F044F900F0F1F94AE00022354B5A7086E71E
:400EC0004988162900D9172128880DF091F83EE00800FFF7CFFE3B78334204D0002802D12800FFF71DFD3B78DB0704D5002802D1280000F0F3F83B78DB0704D5002802D1AE
:400F0000280000F0EFF93B78DB0720D4002809D0122303A98B70AB89C87028680B800DF05DF814E028680DF0EDF810E01B78334202D0080000F0D2F83B78DB0707D52800E7
:400F400000F0D0F903E0184A13781E43167011233A781A4208D001223B78290093433B700C4B20001B68984705B0F0BD1C23002018230020700C0020740C002017230020DC
:400F80000C230020F8110020A00B0020F90D002019230020082300201B230020804901000D230020790200000423002010B5FFF75CFE01219623084AFF330840181A13786E
:400FC0008B431370054B1B788B4204D1044A491813780B43137010BD1C2300200C2300200423002070470000014B18607047C046001200201FB5012400282DD108292BD891
:4010000006290CD8080000F0DDFE140425230608210014210EE01A210CE01D210AE0062461430F480D3441182A390988002913D000E0182101A882800022018111000193FD
:401040000DF074FE441EA04184B205E0132403E00E21EFE71621EDE7200004B010BDC046484001007FB50D000124002830D1022A2ED8033905292BD8052D29D0032D03D1EC
:40108000022A25D1123423E02C1FE6B212490620022E03D860430918183102E068432A380918002A01D14A8803E00124A2420FD18A881324002A0BD001A802810022838000
:4010C000089B110001930DF031FE441EA04184B2200004B070BDC04648400100F7B5424F06003B68002B01D100257AE06A460024038801941380947083893C4D182B15D1C8
:40110000D4700189012901D000245BE043681A78002A06D0012A55D12B78982493432B701CE02B78CB248B432B7030E0162B17D16A46143BD37001890129E5D143681A7810
:40114000002A06D0012A3DD12B789A2493432B7004E02B78CC248B432B7018E0FF3431E01A2B04D16A46163BD370C31809E01B2B01D1173B20E01D2B0BD1183B6A46D37052
:40118000331D0122CD2401932B7893432B70640018E0002B01D10633F0E7102B01D1093BECE7112B01D10A3B06E01F2B01D1173BE4E7002B06D108336A467068D370FFF726
:4011C000F5FE04000123297819408DD1301D3F3332000DF0E1FD051E03D13B686946200098472800FEBDC046001200201C23002070B586B001AC20801D000A9E0120002937
:4012000041D1082A3FD8042A0AD0062A0BD0D31F834238D806235A431C4C2A3AA41804E01A4C183401E0194C243423881320002B29D014226388013B5343154AD3181B6934
:401240005868FFF712FD0123010019400CD0114B1B78022B15D1238803A901980B8103968D800CF0F9FE0EE0238803A803810A000B00858003960DF08FFD431E984180B2C8
:4012800001E00420FF3006B070BDC04648400100303C010017230020EE23034A5B00D35801225B681A707047303C010070470000014B18607047C046041200201FB5040003
:4012C000012084420CD100290AD1342401A882800A00019304810DF029FD431E984180B204B010BDF7B5204E050033681C1E39D08389342B02D00024312B33D16A462B88CF
:401300002F1D1380002140232A0038000DF044FD041E22D1AB89342B17D16B460127019068689F70FFF7A1FC0740F820FF303368C01B694698470D4B1B78012B0DD1022194
:401340000B4A13780B43137007E06B469870FC20019733686946400098470121054A13788B4313702000FEBD041200200C230020042300201C2300207047000010B504002C
:4013800000F0EBFAC021044AA40113688B431C43146000F0E6FA10BD08E400E010B58024054B64001C60054B18660320FFF7E6FF034B1C6010BDC04680E100E0000000209C
:4013C00000E100E04023044980010A689A43D2B2034013430B607047000304407F23044AC00111680B401843C0B210607047C046000304404023044980010A689A43D2B26C
:40140000034013430B60704700020440024B18680006C00F7047C046040204407F22034B18689043C0B21860C0097047100204407047000010B5040000F08FFA044A054B69
:401440001168A4050B401C43146000F08AFA10BD00E400E0FFFF3FFF10B50424054B064A1C60064B03209A64FFF7E4FF044B1C6010BDC04680E100E0311400000000002053
:4014800000E100E00422014B1A60704780E200E070B5040000F061FAE104E024054DA4032B68054A21401A400B0013432B6000F058FA70BD00010B40FFFFC7FF10B504005F
:4014C00086B000F04AFA0E4B0E491A6802AB02920D4A126803920D4A1419033C227804920B4A126805920B4A00926A4601930A4B1A600A4A11601B6800F033FA06B010BD6E
:4015000008010B401700008000010B407C40010030001040B6EA0000080010400400104070B5802504002D02064BAC4205D9586800F00AFA044BE418F6E79868604300F062
:4015400003FA70BD000E00200080FFFF10B5034B1B7B584300F0F8F910BDC046000E0020012370B5040080200E4900020A681D001A430A600C490D4A11600D490A680243A9
:401580000A60002C01D100200AE00120FFF7DEFF084B1B682B42F6D1013C002CF5D1102070BDC04660F02E400220000078002E4010002E400C002E4010B500F0CEF90421CA
:4015C000034A13688B43136030BF00F0CAF910BD10ED00E037B500F0C0F904210D4A0E4D136804005B005B0813600C4B0C4A1B8802209BB213600B4A13680B4313602B6824
:401600000193FFF745FF30BF019B20002B6000F0A8F937BD00000B4000010B4052F1FF0F0C000B4010ED00E010B500F096F91F4A8021136809069B009B0813601C4A13689B
:401640009B009B0813601B4A13689B009B081360194A13689B009B081360184A13689B009B081360164A13689B009B081360154A13689B009B081360134A13680B430421A9
:401680001360124B124A1B889BB21360114A13680B431360104AFB3113688B430E390B43136030BF00F05DF910BDC04608000440080104400802044008030440080404409F
:4016C000080504400806044000000B4050F1FF0F0C000B4010ED00E02C000B4001200A4A136883431360022311689943116007492E330A689A43203B1A430A6007220B6830
:40170000934303430B60704700F02E4000FF2E4010B5FFF7E3FF8021024A090613680B43136010BD00F02E400122104B70B51C681440002815D0904215D10225072619688B
:40174000A94319600A490A68B2432A430A600A682E35AA43103D2A430A601A681043186001E0FFF7BBFF200070BDC04600F02E4000FF2E4010B500F0F0F8C021034A0902BB
:4017800013680B43136000F0ECF810BD00010B4010B5802400F0E1F80749084B0A68E4011A4022430A600A6813408022120213430B6000F0D6F810BD00010B40FF3FFFFF5C
:4017C0000300044ADB0010680133D840012318407047C04610020B4070B505000C00FFF7EFFF00280AD103210800ED00A8402140A940034A136883431943116070BDC0466D
:401800000C020B4070B504000D00FFF7D9FF00280BD10123E4000234A340044A116899430B002900A1401943116070BD0C020B400C4B1A6802431A60C20703D5022219683D
:401840001142FCD0C20504D58022920019681142FCD0C20304D58022920219681142FCD07047C04610020B4070B50E4D06002B680C009B0FC920002B00D06C38FFF766FE96
:401880000949300181408440084A432013688B431C4314602B689B0F00D02438FFF756FE70BDC0460C020B40FFFF000008020B40024B1868024B18407047C04610020B4031
:4018C0000404040070B5050000F047F80E4B04001A68C0231B02134011D10C480C49054028000E680B4A3240104308600A68012B01D1FFF73FFF200000F033F870BDFFF75F
:4019000047FF0123E9E7C04600010B400404040010020B40FBFBFBFF044B054A196810400843186019681142FCD1704710020B4008080800024B18683F2318407047C0467F
:4019400004020440000000000230800803D00138FDD1C046C046C0467047EFF3108072B6704780F310887047F0B51F4BA5B000928A1803900F0001209A4233D80020050046
:40198000CE09F30104ACE41A009A954204D3012828D90120404225E00028F8D11A008032019202909F420CD80099A94209D903991A78495DE154914201D0012202920135ED
:4019C00001E01978E154019A01339A42EAD1029B002B03D004A9300000F076F90136803C019BD1E725B0F0BDFFFF010001607047016070472B4B2C4A19782C4B09021B7879
:401A000019432B4B1B7812781B021343294A934204D1072909D1284B033906E0D4221201934202D1042900D1234B244A1360244B244A1960244B1B7812781B021343234AC8
:401A4000134200D1224B234A23491360234A0B7812781B021343224A934204D0214A934201D0052B00D1204B204A1360204B214A1B681268AA2A14D11F2B12D90B780E2BAE
:401A80000FD11D4B1D4A1B7812781B0213431C4A13601C4B1C4A1B7812781B0213431B4A13607047D9F0FF0FDEF0FF0FD8F0FF0FDFF0FF0F580B0000580D00006C002E401A
:401AC00074002E40DAF0FF0FDBF0FF0FFFDFFFFF0220000078002E40DDF0FF0FDCF0FF0F0F0F000005050000050F000080002E40EC0F00F0E00F00F06DF2FF0F6CF2FF0FED
:401B000084002E406FF2FF0F6EF2FF0F94002E4010B5FFF71BFD10BD10B5FFF701FD10BD10B500F05DF810BD10B500F061F810BD10B500F05DF8034800F028F8032000F084
:401B40002BF810BDBD1D000010B5024800F034F810BDC046BD1D00000220FF3070472B2070472B2070472B2070472B2070472B2070472B2070472B2070472B2070472B2060
:401B800070472B2070472B2070477047014B18677047C0460000002010B50400FFF7DDFEC021044AA40113688B431C431460FFF7D8FE10BD0CE400E010B58024054B6401FA
:401BC0001C60054B18670320FFF7E6FF034B1C6010BDC04680E100E00000002000E100E08022024B52011A607047C04600E100E08022024B52011A607047C04680E100E0E9
:401C000082B06A460B4B0C4900930C4B043301930B4B1A600B4A1160C0461A68120F0F2A04D01A680020120F0A2A01D01868C0B202B07047B6E9000016000080EC22002090
:401C40000800104004001040094B0A4A0A491A600A4A1160C0461A68120F0F2A04D01A680020120F0A2A01D01868C0B27047C04608001040B6E80000150000800400104072
:401C800082B06A460B4B0C4900930C4B043301930B4B1A600B4A1160C0461A68120F0F2A04D01A680020120F0A2A01D01868C0B202B07047B6EA000017000080EC2200200E
:401CC00008001040040010400023F0B5A7B002930393314B0500984259D8002957D0802206A800F02AFA2D4B9D4201D82C4B00E02C4B04937F2304AE73602B4C2B4A2C4B8F
:401D000026601360C046236817001B0F0F2B04D022680023120F0A2A01D02368DBB20293029B002B35D1FFF718FE0190FFF768FF0390039B002B02D1FFF786FF0290029BA9
:401D4000002B15D11B4A1C490492049A2D0415430495154A26603960C0462168090F0F2903D01168090F0A2901D01368DBB20293039B002B07D1FFF783FF0390039B002B5B
:401D800001D0039B02930198FFF7EBFD01E004230293029827B0F0BDFF030000FF010000B6D70000B6D70001080010400400104004000080B6D800000500008010B511F0C7
:401DC00013FF10BD02B4714649084900095C49008E4402BC7047C046002243088B4274D303098B425FD3030A8B4244D3030B8B4228D3030C8B420DD3FF22090212BA030CEC
:401E00008B4202D31212090265D0030B8B4219D300E0090AC30B8B4201D3CB03C01A5241830B8B4201D38B03C01A5241430B8B4201D34B03C01A5241030B8B4201D30B03A7
:401E4000C01A5241C30A8B4201D3CB02C01A5241830A8B4201D38B02C01A5241430A8B4201D34B02C01A5241030A8B4201D30B02C01A5241CDD2C3098B4201D3CB01C01AA3
:401E8000524183098B4201D38B01C01A524143098B4201D34B01C01A524103098B4201D30B01C01A5241C3088B4201D3CB00C01A524183088B4201D38B00C01A524143088A
:401EC0008B4201D34B00C01A5241411A00D20146524110467047FFE701B5002000F0F0F802BDC0460029F7D076E7704703460B437FD4002243088B4274D303098B425FD3A2
:401F0000030A8B4244D3030B8B4228D3030C8B420DD3FF22090212BA030C8B4202D31212090265D0030B8B4219D300E0090AC30B8B4201D3CB03C01A5241830B8B4201D37E
:401F40008B03C01A5241430B8B4201D34B03C01A5241030B8B4201D30B03C01A5241C30A8B4201D3CB02C01A5241830A8B4201D38B02C01A5241430A8B4201D34B02C01AAD
:401F80005241030A8B4201D30B02C01A5241CDD2C3098B4201D3CB01C01A524183098B4201D38B01C01A524143098B4201D34B01C01A524103098B4201D30B01C01A52412F
:401FC000C3088B4201D3CB00C01A524183088B4201D38B00C01A524143088B4201D34B00C01A5241411A00D201465241104670475DE0CA0F00D04942031000D340425340F5
:4020000000229C4603098B422DD3030A8B4212D3FC22890112BA030A8B420CD3890192118B4208D3890192118B4204D389013AD0921100E08909C3098B4201D3CB01C01A75
:40204000524183098B4201D38B01C01A524143098B4201D34B01C01A524103098B4201D30B01C01A5241C3088B4201D3CB00C01A524183088B4201D38B00C01A5241D9D268
:4020800043088B4201D34B00C01A5241411A00D20146634652415B10104601D34042002B00D54942704763465B1000D3404201B5002000F005F802BD0029F8D016E77047E3
:4020C0007047C046014B18687047C046981100200E4B70B500251E000D4CE41AA410A54204D0AB00F35898470135F8E711F0DEFF084B00251E00084CE41AA410A54204D02B
:40210000AB00F35898470135F8E770BDB8400100B8400100B8400100C040010030B50024A24208D0035D651C0C5DA34201D0181B02E02C00F4E7002030BD002310B59A42EA
:4021400003D0CC5CC4540133F9E710BD03008218934202D019700133FAE77047134A1088810703D08107890F401A001D11791030484381B25088820703D08207920F801A6B
:40218000001D800040180A494030098980B2CA0701D0503080B2890706D504495422091F09785143081880B2704700001A0E00201412002010B501F0ADFF10BD10B501F068
:4021C000BFFF10BD10B501F0C3FF10BD10B500F055FA10BD10B50749044609780220002907D1204602F004F8002802D120460AF041FD10BDB80F002070B504460120002CDE
:4022000012D02368002B0FD0616800290CD0074D06222889208118462968FFF78EFF6968606809780170002070BD000014120020FFB585B0002768460E9D07734F481C461F
:402240000078002802D0082009B0F0BD10990F9801900095029105A807C800F001F90028F2D16946264603AB84460873002C19D0002115E08A00B75A082F09D99019807876
:40228000002805D0083FB7521878401C187005E0002914D00027B75290198770491CC9B2A942E7D360460028CED10F98002809D0109901F0DFFA002804D00120C4E70120A5
:4022C0008446EFE701F03CFF2D480021416081600599016021888180022D07D3A1798171A17AC171A1890181218A418100211EE0481C19E082008B00A75AE65ABE46BE4208
:4023000011D26F463E80B4461E190296B678BE7001967646E6521719029EBB78B3706646A652019EBE70401CA842E3D3491CA942DED3134822460C3000906846037B0799A8
:40234000069800F015F90028B8D168460B4C007B60700B480C3001F023FF0028AED1084907480C3107F008FD0028A7D107F022FD0028A3D10121217066E70000140E00200A
:4023800008120020F8B5054633480E460078002802D002242046F8BD002E5BD000242F49002D16D02A89D0070DD02868002808D003881B3BE12B04D24088FB2801D81B28A0
:4023C00001D2012409E0900707D56868002804D1F7E70020088108604860002CDAD11F482F8907811C481B21801D018041800421017119490020891C0870F80705D01648C0
:402400000622801D2968FFF798FE1449B80703D56A681148127882700F480D46801D0860001F486001F00AFF0B48801D01F0F8FE28890DF0A5FD28890DF00CFF0346103343
:40244000FFF78CFE1F21C018890140180249308088809FE701249DE7140E002014120020FFB58446384F1C460020BB883F78054602460646002F11D100290ED0029999423A
:402480000BD36146002908D0002C06D00A99002906D02E4B0B99994202D2012004B0F0BD002144E0AB001F19BF78002F3BD0E35A002B38D07B43591889B22B0000F04AF8D4
:4024C000050410161C253100A7782388BC46FF27233BEB37BB4222D26346032B1FD322E0A388002B1FD0302B19D31CE02389002B19D0282B13D316E0A289002A13D0134605
:40250000134F233BBB420AD20DE0268A002A0AD033460F4F233BBB4201D2964203D901200EE0002001E000280AD16D1CEDB2099B9D42B7D31C2463435B1802998B42ACD81B
:402540009642AAD8AAE70000140E002079020000BAFF000030B47446641E2578641CAB4200D21D46635D5B00E31830BC18470000FFB583B0002469460C801F4606468C8037
:40258000002806D00598002803D004983043800701D0012466E0002FFBD03449049809888842F6D3FFF7D0FAFFF7BEFA00F012FC002855D100F07AFD002851D12C4908464E
:4025C00001F08CF905042D0C4AD12A480499066081800021C18007810C98007AC00704D0684601F0C6FD040007D10C98007A800703D501A801F0C6FD0446BF1DFEB2002CD5
:4026000020D13146059800F05DF804001AD10DF02FFE040016D16A461088928808368518144AF1B29088D288AEB29319984207D3401B801A80B201F041FC050007D000E0CB
:40264000FF25012400F05EFA002D04D008E0F8B200F01CF9F6E700F081FA07490120087000F0CAFB204607B0F0BD0000180E0020B127000020120020200E002010B50348B3
:402680000078012801D101F0BBFA10BD200E002070B5084B0446DA889E8800205518B54206D81D68AA182260DA885118D98070BD032070BD201200200148008970470000F5
:4026C00020120020F0B587B007460D4600208900009006916846FFF7DBFF844600285DD1304800990160002117E02E4B88001A680629115406D22C4C041966788218567052
:40270000628805E0C419203CA67A8218567022891B68C018491C4280C9B2A942E5D300242DE0601CC2B2059025E01E4FA30039689600581840887118039604904E88B0420E
:4027400017D938466F46FE80B6464F786E4677710297049F4F800168039F5E18767879184E700168764659184E800068029F18184770521CD2B2AA42D7D30598C4B2AC42B3
:40278000CFD36046002809D168460699FFF780FF8446002802D1054900980860604607B0F0BD0000240E0020E0400100280E00207047000010B5002809D005494A68002A80
:4027C00005D0011F08788000105801F025FB10BD240E002010B50446FFF76EFFC0B2801DA0420CD307484068002808D0A100405801F084FA002801D00470001D10BD0020F4
:4028000010BD0000240E0020F8B516460D460446FFF752FFC0B2801DA04203D20020C0430090F8BDB2B2E9B2684601F08DFA0099481C03D0024AA000526811500098F8BD15
:40284000240E0020F8B50746FFF736FF801DC6B20A49002005460C680DE06178002907D06188B94202D32078FFF7B4FF002804D1241D6D1CEDB2B542EFD3F8BD240E0020B4
:4028800010B5002801D0FFF795FF10BD70B506460948002504680BE06178002905D062882078121D0023FFF7AFFF241D6D1CEDB2B542F1D370BD0000240E0020FFB581B0EE
:4028C0000A9F16000C4620D000F0F2F8054604281BD0002F0CD03846FFF7B4FF20492A0151184860002810D03A460499FFF725FC1B4928010E504618778101980570200415
:4029000006D47D20C000444304E0FF2005B0F0BD6404640C00F0BAF80746042807D000F04FFAA0420BD800F04BFA201A03E0204600F0AAFA0020F06035720020E6E700F06C
:402940003FFA009000F0B6FA00980121001B009000F0ECF802493A0151180098C860E6E72C120020F8B5060116483418217A042903D0E068002802D017E00020F8BD00F0E4
:402980001FFA054600F096FA00F0A0F804280CD001010C480F18F8680021451900F0C6F80020F860284600F06FFA6068054D002801D0FFF765FF042020720020A85160813D
:4029C000E060DAE72C120020FEB500266A46304601232549050169180D7A042D02D0C96800291BD000211154401CC0B20428F0D300246846005D002830D01B482101081852
:402A00004189476805680291002101604160042241810272C160002E02D015E01354E3E700F054F804280ED001010F4808180190C6680021304600F079F801980021C16006
:402A4000304600F021FA0126002D07D038460299A847002F02D03846FFF712FF641CE4B2042CC6D3FEBD00002C1200200EB5002005216A4600901181508103486946006816
:402A80000EF05BFA0EBD00002C0E0020074A0020010189180B7A042B02D0C968002903D0401CC0B20428F3D3704700002C1200200549002002015218127A042A03D0401C3E
:402AC000C0B20428F6D370472C12002030B50A4B04200A4C00210A011219157A042D06D0D268002A03D09A4201D808461346491CC9B20429EFD330BDFFFF00002C1200200E
:402B00007047000030B50020074C05460423020111190B72A5504D60401C4D81C0B2CD600428F4D330BD00002C12002030B5094C00231A011219157A042D04D0D568002924
:402B400006D02D18D5605B1CDBB2042BF1D330BD2D1AF7E72C120020002070471CB5002469460C70142001902346054A05480EF0E9F904480068401C00D1FF2420461CBDBA
:402B8000D92B00002C0E00203EB5124A0146FF2000230124126800290DD0012914D0042908D104206946009308814B8110460EF0C4F980B23EBD68460093048143816946F4
:402BC00010460EF0B5F9F4E768460093048143816946EBE72C0E002070B545890468416800890300FFF7B6FC08280509091E22282628002005F082FF1EE0022908D0C8B249
:402C00002A4621460CF028FB2046FFF739FE13E002202A4621460CF01FFB2946204600F00DF809E000200DF087FE05E02046FFF7CBFE01E0FEF7A9FF002070BD014B002271
:402C4000DB681847300E002070B5448905680089022803D0032809D0FF2070BD2246094C0023A46829460120A04708E0FFF7A6FA241DA2B200232946022006F030FF0020B0
:402C800070BD0000300E002070470000024800214160018041807047300E002070B50C46002186B016460391012802D0022859D116E003A9012006F067FF01281BD1039D8E
:402CC000324621462846FFF738FA0095287801900220694608814E816846FFF7B5FF41E0214D002B686809D0049004A9022006F04BFF01281DD0022006B070BD002812D0ED
:402D0000298840182146FFF718FA28880024801980B228806988091D884206D12C801348FFF792FF03E00320E6E788421AD96C6018E004986860E278A378110219430B4A9D
:402D4000698000231060E3565360032313815181A1788170E178C1706178417021780170042028800020C7E7300E00206C1200203EB515460C46022803D004280CD00020DC
:402D80003EBD0091019002206946088107484A8100680EF0D2F807E00CF05EFA044B0022DB6829462046984701203EBD2C0E0020300E0020014AD16090607047300E00205A
:402DC000034801688068081A0A214843000970477812002010B5FEF7ABFE482204490548FFF7ABF903490120C870002010BD0000FC4001007C16002010B5FEF791FE10BD5D
:402E000070B5134C2368002B08D0207B1149C20705D04008400020738868A08070BD88680B4AA18880B29268814203D90A4D691A091802E0814202D2411A5118A160A08003
:402E4000A0689842EAD30EF095F800F013F870BD78120020C0102E40FFFF000010B508461946FFF7A7FF10BD704710B5FFF780FF10BD000003480021016041608160C16011
:402E80007047000078120020024610B5FF20002A0CD0FFF7EFFF064C0321207B0843207310010A21FFF71EF82060002010BD00007812002000B504480A21806848430209A3
:402EC000FFF7D8FF104600BD781200200248007B8007C00F704700007812002010B54B490868002802DA4A4B01221A70022290430860484800694549C00B4031096A0246E0
:402F0000C907C90F0A4259D0012000F0EDFA3F480E216C30FEF76CFD3E4820218430FEF767FD3C4814219C30FEF762FD3948FF21C131A430FEF75CFD3648FF212F31B0308C
:402F4000FEF756FD33483449BC30FEF751FD31483249AC30FEF74CFD30492E48491CB430FEF746FD2B482E49B830FEF741FD29482C49CC30FEF73CFD26482B490830FEF740
:402F800037FD24482949A830FEF732FD214828498830FEF72DFD1F4826498C30FEF728FD1C481921C9029030FEF722FDFEF722FDFEF7D2FDC0B2022812D01FE000290BD010
:402FC000002101420AD0114801216030FEF710FD0120FEF7A1FD97E70121F2E7FF2010BD15491648FEF704FD14481549001DFEF7FFFC124800210830FEF7FAFC5420044995
:40300000C043891C0870002010BD000000F02E40400E002000002E40320300002F3F00003102000010520000EC160000FA12000031D000003AE300009956000080012E4007
:40304000F80F000070B50646581C80B245086D00002408E0304600F0C1F81055000A1119A41C4870A4B2AC42F4D3D80705D0D0182038D15CC47FD454C17770BD30B50A4C05
:40308000002100195B1E07E0541864782502545C2C430480891C89B29942F5DB994201D1515C018030BD000000102E4010B5FF2000F01AFA0F49FF2048700E481021801D58
:4030C00041800121417001700A490020C91C4870FFF704FF04000AD100F02EF907210648FEF784FC044807211830FEF77FFC204610BD0000400E0020CC112E4070B5002480
:4031000005465B1E0AE0284600F068F8010A161971702D1D1055A41CADB2A4B29C42F2DB9C4203D1284600F059F8105570BD000070B500210A4D5B1E0AE0541864782602D6
:40314000545C344346193480001D891C80B289B29942F2DB994202D1515C4019018070BD00102E40F0B50599091FCFB200217E1E0BE0541864782502545C2C43164D45197B
:403180002C80001D891C80B289B2B142F1DBFC0712D01C78515C24020F4A0C4381180C809C785D78001D210280B2294384182180001D80B2D9780CE059781A78090211430A
:4031C000054A84182180001DD9789B78090280B2194380180180F0BD00102E40014940180088704700102E4010B50B490020487000F0A2F8002000F09DF9002000F08AF9D2
:4032000007210648FEF7F2FB044807211830FEF7EDFB002010BD0000430E0020CC112E4010B50C48007801280FD100F0D9FF00F0DDF8002804D10848016A49084900016218
:40324000054802213030FEF7D3FB02490020C91E087010BD430E002040F02E4010B50B46062812D006DC01280CD0032801D1FFF7BBFF10BD0A28FCD00B28FAD105480078CD
:40328000107010BDFFF712FF10BD1146184600F06DF910BD460E0020F8B5244DAC6A0127A007234E002816DA307806280ED1286A384328621F480069F903084381B21D481A
:4032C0001030FEF795FB042000F00EF9174802212830FEF78BFBE00718D000F0C3FF01280FD1002001F022F8062000F0FDF81049FF20C91E48707078002802D1686B384391
:4033000068630A4801212830FEF770FBE0050BD53078042802D1052000F0E6F80348FF2101312830FEF762FBF8BD000040F02E40430E002000002E4010B503212348FEF775
:4033400057FB0120FEF7E4FB20483038406A204C80076178800F890001431C480C38FEF747FB6078002808D0401E022181401820FEF7A2FEC000083800E0B82081B2154856
:40338000FEF736FB1348032109021438FEF730FB10481149B830FEF72BFB612189010F48FEF726FB0D480321001FFEF721FB0C490C48FEF71DFB0B480B496038FEF718FB1D
:4033C000084801218838FEF713FB10BD70F02E40460E0020D8102E4090890000041E2E40FF0F000058122E4020900000044800684007400F022801D0002070470120704700
:4034000000010B4000B5FFF7F1FF002805D009480168C908C900016000BD0748016A490849000162054801690122D2039143016100BD000000010B4040F02E4000002E4085
:403440000849087806280BD148780749002803D1486B400840004863C86A01221043C86270470000430E002040F02E400148007870470000430E002002484078022800D002
:4034800001207047400E002000B50300FFF762F8080D050D0B070507090D012000BD032000BD042000BD022000BDFF2000BD0000074A9168D26889B2064B92B2994204D105
:4034C00005498A4201D1012100E000210170704780002E4033D000003FE300000149487070470000430E002010B50446FEF71CFB072C01D9FF2C01D102480470FEF710FB75
:4035000010BD0000430E00200149487070470000400E002010B5064A012805D01921C9021046FEF765FA10BD1D21C902F8E7000090002E4010B50A4A141D012808D0094914
:403540001046FEF755FA08492046FEF751FA10BD04491046891CFEF74BFA0349491DF3E788002E4031D000003AE3000070B50C460546FEF7F1FAC0B202280E49287804D0C2
:40358000FF2810D04C280CD810E0FF2809D10A4AD0680004800F032801D0087807E09069000A553803E00878207070BD4F382070087070BD420E002000002E40F0B5012227
:4035C000002834D0002932D00424420600D00524792342065B06D21800D0641C034600221EE00C2516466E43124D00277519AF72104F002ABB51696007D0661EB24209D129
:403600000D4E86197606760E05E05E06760E8027BE1B00E080269B198919521C2E81D2B2A242DED303480549006B002288611046F0BD000004150020790200004C0E0020F1
:4036400018B50020694608700A48006900280ED0132149014018047E684604704F21C900054800F0A7F8A04201D0012018BD002018BD00004C0E002088120020F1B582B03C
:4036800000206A4610700299002903D100F098FE00283AD11E4F00240C2126464E43F519A97A01291DD11B49B859896988420BD14F21C900786800F07DF86946087013227E
:4036C00079685201891808762A89B9596868FEF74BF900280CD028200299002905D0282803D0641CE4B2062CD6D3641CE1B20AE00021A972F0E70C224A43D219927A012AC3
:4037000004D0491CC9B20629F5D3FEBD2820FEBD041500204C0E0020074900200C2242435218927A012A05D0401CC0B20628F5D3002070470120704704150020F8B50E006D
:403740000446154609D0194F19497868A04202D94018A04201D38D4201D90120F8BD31462046FEF7DBFC00281ED02A4631462046FEF7E3FCE8B200210C224A43D2191389FA
:403780005568EE18A6420BD90126641B1B1B9672834209DA1469C01A044AC0B220329676491CC9B20629E7D30020F8BD0415002079020000034610B50020024604E09C5CD5
:4037C0002018521CC0B292B28A42F8D310BD000070B500F05FF8084C064A216907480D46FEF7ABFC05492846FFF7E8FEFFF728FF207070BD790200004C0E00208812002010
:40380000002070470020054A002902D0012902D002E0906000E0D060002070474C0E002070B5084C154608460549E26889182A46FEF783FCE0684019E06028B270BD0000F1
:40384000881200204C0E00203EB50A226946FFF7E7FF044606480A2200686946FEF75EFC002802D00020C0433EBD20463EBD0000500E0020002802D0044A914201D2FF203C
:40388000704703494A61086100207047790200004C0E0020024800218160C160704700004C0E002070B5074C15460548A26880182A46FFF743FFA0684019A06028B270BDB5
:4038C000881200204C0E002010B503490A220968FFF7E8FF10BD0000500E002010B50F4A002313600E4A13600E4B18600E4801600E49012008600E490860000290600E49CF
:403900000C4808600D4914300860FF381538506000F0BCF800F0CAF9002010BD800E0020680E0020940E0020980E0020840E0020740E00204C160020780E00208C0E00204F
:40394000014610B50020002910D0094B1A689C685118A14209D25868196080188A0704D08A07920F891A091D196010BD002010BD680E0020F8B50024164E671E321F3D4689
:403980003168136806E01422624310328A58521C1BD0641C9C42F6D36A1C14D02C461422544322460C3288500C214843FFF7C8FF3168002808510AD03168002010340851A8
:4039C0007068401C70602846F8BD2546E4E73846F8BD0000780E0020F3B50026F64381B000281BDB1E490968884217D80299002914D01B4F142204463F1D54432546396819
:403A000010354859401C09D0FEF78EF838682F1F4159C359994203DBFEF782F83046FEBD214608310091465801590C20704308180C220299FEF781FB0948761C001D006829
:403A4000C159B14200D100260549009A091D865008684159491C4151FEF762F80020FEBD740E0020002803DB07490968884202D90020C043704704491422091D096850439E
:403A80001030085870470000740E0020F0B500200D4A451E0346171F50600FE014260146714314680E1DA3510C461668083433511668083435511468401C635039688842DA
:403AC000ECD30020F0BD0000780E0020F3B50026F64381B0002841DB2349096888423DD8029900293AD0204F142204463F1D54432546396810354859401C2FD0FEF714F85E
:403B00003868415900292BD0211D009146580C21005971430F46C1190C220298FEF70DFB11480021001D0068761C00590C34C0190160416081600C48001D00680159B14280
:403B400000D100260849009A091D865008684159491E4151FDF7E4FF0020FEBD3046FEBDFDF7DEFFFAE70000740E0020FEB504460D4600201E49089E0860471E00900190C2
:403B80000290002C11D0486885420ED2002A0CD0002E0AD0642E08D808460C3001681C2068430C18207A002801D03846FEBD0120226020721846FFF7DDFE6060401C13D062
:403BC0006681A6810A4827610C3067610179A94200D205710021684601810A462846029B00F040F82846FEBD00202072DDE70000800E002038B50124009400F039F838BD4F
:403C0000FEB50027164EFF433D4600240EE01C20316860430818017A002906D04068FFF721FF002801D0254603E0641C3079A042EDDA681C12D01C2130684D434419FDF76A
:403C400073FF69466068FFF741FF0546FDF768FF002DD9D1216868468847D5E7FEBD00008C0E002038B50024009400F001F838BD1FB500220C49541E0A60002811DB496802
:403C800088420ED808491C220C31096850430818406801A9FFF7A0FE401C02D0002004B010BD2046FBE70000800E0020F0B50021114A4D1E174611710C3F0B46BD6016E09F
:403CC00008461C2460431668041D355114680646235014680836A3551468361DA353044616680A34335318301468491C255078688142E5D30020F0BD8C0E002038B50021A2
:403D00000091002811DB0F49097888420DDA0D4D04010C3529680859002807D0201D0818694600F06FF9002801D0002038BDFDF7FBFE28680F34015D491E0155FDF7F0FE94
:403D4000009838BD9C0E0020F7B582B0002502986E1E06602E48D21C024017462D4A2C4610460C380178106805E02301C358002B0FD0641CE4B28C42F7D3711C28D0340150
:403D8000211D40180191039900F02AF900281FD101E02646F1E71F48016820460C300F521C480399026820460E30115419480399026820460F3011540398784300F0A0F85A
:403DC000144900280968085102D00024009011E001251AE00F48016801980818009900F02CF9002801D0012502E00098C0190090641CE4B203988442ECD3002D05D10298E1
:403E0000066004480179491C0171284605B0F0BDFCFF0000A80E0020F8B50D4600216A468C461180002839DB23490978884235DA214B04010C3319680A59002A2ED0204686
:403E40000C300B5A801C0E5C184670438018954224D3854222D2002006E007465F43BF18AF4206D0401CC0B2B042F6D36046002814D0114E271DC8190C366A46294600F0C6
:403E800006F900280AD168460088012808D030682946C01900F0D1F8002803D00120F8BD0020F8BDFDF740FE30680F34015D491C0155FDF735FEF3E79C0E0020F8B50F4697
:403EC000002400F031F8002817D10C4900220B460C334A600EE021011D680E466A501D680C36AA53B61C1D680F31AA551D68641C6A54E4B2BC42EED31A71F8BD9C0E0020A5
:403F000000280BD0C01C074A81085068890053884118994203D893685160181870470020704700009C0E0020F8B5064600200F4D009029700C0121466846FEF7A9FB0028E8
:403F40000CD129460C3100980860301B001F84B221466846FEF79CFB002801D0FF20F8BD6C800098A8600020F8BD00009C0E0020F8B5002827DB19490978884223DA174C9B
:403F800005010C342168485900281CD028460C30085A009028460E300E5C401C0E5420682F1DC01900F064F800280CD12068002445590EE0094829460C300068C01900F0AA
:403FC0003CF8002801D00120F8BD00982D18641CE4B2B442EED30020F8BD00009C0E002030B50D4604000BD0A800FFF789FF6060002805D000202570C0436080002030BDD6
:40400000012030BD70B50D46040005D0002D03D00220205E002801DA012070BDFDF784FD0221615E60688900405828606088401E6080FDF775FD002070BD70B50D46040013
:4040400007D0002D05D002212078615E401E814201DB012070BDFDF767FD6088401C00B26080616880000D50FDF75AFD002070BD10B5040009D0227800216068FEF766F8BE
:404080000020C0436080002010BD012010BDF0B500231D46002802D00224045F0AE00120F0BD46689F00F6598E4201D1012503E05B1CDBB29C42F4DA15700020F0BD000073
:4040C0000148007870470000B00E00207CB505460024FEF773F8A8796946087000A8062229460130FEF729F80021684604F0CCFF0C2806D0072806D01F2806D0122806D0D2
:4041000006E0022404E0042402E0272400E0012420467CBD10B502280BD0032802D0042809D102E000F0A6F905E000F051FAFF2801D100F061FAFFF799F9FFF7A5F910BD0B
:4041400010B500F089FAFFF791F9FFF79DF910BD70B504460025FEF731F8002C06D0A079012803D8214602F017FE00E00125284670BD01460120002902D0502008800020D3
:404180007047000001460120002905D003485422007850430880002070470000B20E002010B502460D49FE204870032410460DF0E7F9002810D10DF08BF900280CD105F0C0
:4041C0003FFD002808D100F057FC002804D105F001FA002800D10024204610BDB00E002002480021018280210180704700102E4070B50025044600280ED0A07901280BD820
:40420000FDF7DCFFA0790028204602D003F0A0F903E003F075F900E00125284670BD0000014610B50120002904D006220248FDF784FF002010BD0000BC0E00200146012073
:40424000002903D0087802490870002070470000B20E002010B5FFF709F9012801D1FFF70BF910BD0148007A704700008417002038B504460120002C20D0617801291DD828
:4042800000290BD0FF25E535FDF798FF0C4828180088C0B22070072803D00EE0FF25CD35F2E70020694608706846FFF701F969460878012801D108202070002038BD000048
:4042C00000102E4010B507480024807B002806D00448203002F062F9012800D1FE24204610BD0000C4160020014A002192681047B00E002008B500226B461A7026280CD0FE
:40430000094A342852680BD0352805D1900703D50021352005F070FD08BD19462620F9E7D007F9D03420F5E7B00E0020014908727047000084170020F8B504460120002C4D
:4043400026D06178012902D92278092A20D8002905D0FF25E5352078092803D004E0FF25CD35F8E708202070FDF728FF2078114F114E08280DD00020FFF7DCF870780128B1
:40438000207810D00D4969180880FE2070700020F8BD0120FFF7CEF80720B8810549203188800120F2E7B8810248217820308180EBE70000C0112E40B00E002000102E409B
:4043C00010B509480024807B00280BD0FFF74EF8062801D0032800D12824FFF773FFFE2800D12824204610BDC416002070B50E46050001D0002400E00C4C002C11D0E28A06
:40440000500609D5D107C90F022003F03FF9E08A40218843E08204E0D107C90F012003F035F93146284602F013FE70BDE4160020F8B50546002004460D4E009013E02246A6
:404440006946284601F002F90098002801D00DF079F8A878214602F0DDFBA878214602F0CBFB641CE4B2308AA042E8D8F8BD0000B0170020F8B54E4CFEF7F8FF012847D122
:404480004C480078002843D002F06AFD00283FD004F09CFA00283BD0474E7078C00703D000F01CFD012833D0307E00287DD17078002500285BD0000706D540488089070B13
:4044C00000F02EF9384370D13B484178684604F0D3F821793A4CA2788918C9B2814262D802F03EFD002860D0344860300789324E203602F07FFB6846008802F0A9FB02F0CC
:4045000045FC30490988884203D10120FEF7ECFF4BE02D49012008702748807B00281DD0002F1BD04036F07E002817D123486030008821494000C031498981420AD2607863
:40454000002807D103F0D0F82049088A03221202104308822078002800D0257002F0AEFB0120FEF7BBFF00F025FC174C15E002F0F7FC002819D0102402F008FC214602F0FD
:40458000F1FA02F065FB104C0120207002F096FB0020FEF7A3FF00F00DFC20780128B4D1FEF730FF25700020F8BDFF20F8BD0000BC160020400E0020C4160020A0102E405E
:4045C000D60E0020E80E0020C20E0020E0112E4010B50848FF244078002809D102F0C0FC012805D1FEF71CFE0720FEF77DFF0024204610BDC416002038B5FEF737FF01287A
:4046000001D0002038BD02F0ABFC00280AD0114C6078C00703D000F061FC012802D0207E002801D0FF2038BD617800290FD0684604F022F8022806D96846008802F008FB66
:40464000012002F045FB0320FEF74EFFD9E70020F7E70000C416002038B51E4CFEF706FF042813D0052811D0062812D003282AD007280AD100206946087002460120FEF778
:40468000EDFDFEF7F3FE0128FBD138BD00F0B2FB38BD02F035FB00F0ADFB02F0B1FB8007800F0228F4D10C4841880029F0D05B21095D0029ECD101210170A07D0140022070
:4046C00002F0E4FF38BD02F01FFB0120FEF70CFF38BD0000E4160020D60E0020F8B50646002403F041F80546304603F057F803460A480021068A0DE001228A40104617468B
:4047000028401F40002803D0002F01D1224394B2491CC9B28E42EFD82046F8BDB017002070B500252C460A4E03E0002C01D0002000E030460079002803D02046FFF7CEFF8B
:404740000543641C2406240EEFD0284670BD0000E41600201CB50020694648706846FFF787FD01AA69460A20FEF778FD6946042008561CBD70B50D4601F048FB04000BD09E
:404780002079002808D0FDF719FDE178A0782A4602F0E4FC002070BD022070BD0148007870470000BC1600204030C07E002800D00120704700B500F001F800BD9021484388
:4047C0000749084A40186030417F491CC9B24177D289914201D300214177C8B270470000C4160020B017002013B501F00FFB04000BD001F0ACFE002807D0214601AA0A3161
:404800000620FEF72BFD00201CBD02201CBD000010B50C4601F0FAFA00280AD001F097FE002806D0224604490A20FEF717FD002010BD022010BD0000A5160020F3B581B047
:40484000074601460026029802F086FF0446002F01D0002500E0154D002D21D0284601F00BFB032C04D13946029802F0D1FF06463846029902F0C0F9032C06D0002C10D039
:404880000121384601F0FEFB03E03146384603F0BDF9284602F09EF80221284602F0B4F8FEBD3846029902F0A7F9FEBDE416002010B5044600F066FA002804D103F070FED0
:4048C000002801D00C2010BD2078611C02F048FDFF2801D01F2010BD02F08EFDFF280AD02178621C02F010F9044821780068026B601C904710BD072010BD0000FC0E0020EE
:4049000010B503F04DFE002801D00C2010BD02F009FD03480068C06A8047002010BD0000FC0E002070B50D46044610210CF04AFD1021601806460CF045FD3346102219465C
:40494000204603F05BFE102130460CF03BFD02202870204604F074FD70BD0000F8B504464078217802028006870FE0781143A67809050002090D0643084601F047FA0021B6
:404980000546F2B2002812D0002C10D0022F0ED0032F0CD0002A0AD00279092A07D0002A05D0134A5A23527E1B5C9A4207D82889002104F07AFC20460CF0C4FDFF210029C9
:4049C00014D10C48224600682946436930469847C0B2FF280AD128464030817EF2B2491C8176FF232146284600F0E3F8F8BD00007C160020180F00200020704710B5044697
:404A000003F0CEFD002801D00C2010BD2078611C02F0A6FCFF2808D002F0DEFB044821780068426B601C904710BD1F2010BD0000FC0E002010B500F06BF904F0CBFD00200E
:404A400010BD10B5044600786178E2780843A17811430843217908436179084305D003F091FD002803D00C2010BD122010BD204602F06EFD002010BD10B5FDF76DF802F099
:404A800095FE044803F0F0FE02F0B0FB012000F003F810BD8C160020F1B586B003A8009005A8019028489F22817A114081726846FDF7A2FB002845D169460989C90705D0D6
:404AC000224806990068C2686846904769460989890706D5002835D11D480068816A0698884700282ED11B4E0025757075737571F575357675767575B570F570B571374618
:404B0000F5730120D03738731F20F880FF2130467972A0300176457600F0F0FA00242046069901F0BFFC002803D1641C2406240EF5D0FD720749BD72B573C0310D704D7073
:404B40004D600D7207B0F0BD7C160020180F0020FC0E0020C416002070B505460E46084602F002FE0446304602F018FE0121A9400A46224001400A4301D0012070BD002032
:404B800070BD10B50446084602F008FE0121A140014201D0012010BD002010BD10B5FEF765FC032804D102F0AFF80120FEF79CFC10BDFEB51C4616460F46054601F00AFF47
:404BC000A878FFF7F7FD02460190334639460094284600F00DF8002808D1A8780199FFF705FCFF2C02D138460CF0ACFCFEBD0000FFB585B005460E980C46FF2810D02B49AF
:404C0000C00009680A5840180179C0795278814201D9012601E09006860F6846038108E06078A1788006860FE0780002014368460181284601F096FC070007D021462846A4
:404C4000079A00F097FC384609B0F0BD304600F045FD04AE0346039002AA29460096204600F0D1FB3C20405D002818D0284601F079FC012813D0684600890096C0B201906A
:404C8000A878231DFF22079902F096F968460089039BC2B2A878079902F0D6FCD3E7684600890021C0B20091E9E70000140F0020F8B5002600253046FFF710FD07001DD0F8
:404CC00090201149704340186030447F12E0601CFDF708F9CCB23846E040C007C00F07D02146304601F07EFF21463046FFF7A6FD6D1CEDB20548018AA942E8D8761C360626
:404D0000360ED7D0F8BD0000C4160020B017002010B502F06BFA0020FFF7BEFE0CF0A8FC002010BDF8B5002400F0D2F80123012800D10124104F00203E46203604250822FD
:404D400003E0002801D0002100E031460979002907D001290BD002290BD0114681402143CCB2401C0006000EEBD07C70F8BD1C43F7E72C43F5E70000C416002010B5FFF74F
:404D8000D1FF10BD10B5044604F076FD002802D1601C00F001F810BD1CB500240094062269460194FDF7BAF9002800D1122420461CBD000070B50E4CFCF7CFFD0546FEF72B
:404DC00055FB062802D02078012803D02846FCF7C8FD70BDFCF7F0FB2846FCF7C2FDFEF745FB0628F5D020780028E5D170BD0000C20E002010B5FCF7B0FD0446FEF736FBEE
:404E0000012809D0FEF732FB022805D0FCF7D4FB2046FCF7A6FDEEE72046FCF7A2FD10BD10B50B4681791943817103D08078114602F0D8FB10BD10B582798A43827102D192
:404E4000807802F0E3FB10BD30B50C4C0220A28A0B4B9978002901D0022906D11D785B78EB18282B01D9032002E0032900D101205105490DC0020143A18230BDC0112E40F3
:404E8000CC0E002000B500F029F8002807D0012805D0032801D0042801D0002000BD012000BD014600B50020C90701D000F010F800BD014600B50020C90701D000F008F862
:404EC00000BD00000148006870470000C40E002001480088000A704720102E400448008B410501D5042070474007800F7047000000102E4010B501F049FF044601F090FFCA
:404F00000146204601F06AFF10BD00000148406870470000C40E002038B50446000610D5FFF7DCFF01280CD1684601F0FDFE6846007800F023FB012001F0B4FD0220FFF761
:404F40001DFF600708D507480179012904D1002101712620FFF7CEF90348006801692046884738BDD00E0020FC0E002070B505460C49007800240870FFF7AAFF012803D18F
:404F8000FFF7B8FF022803D3284602F04DFA07E0284600F0EBF8040002D1034801210170204670BDCC0E00208417002070B50446FFF78EFF002801D00C2070BDA27B0121F5
:404FC0001F48002A827801D00A4301E05208520082706279012A14D0C17849084900C170184D2868016820468847207901280CD06188208803F086F82080207904280FD024
:4050000015E0C2780A43C270EAE72868C168E01D8847E01D02F088FA0B48808C208006E02868C168E01D8847E01D02F07DFA074920798870204602F005FA002070BD0000A6
:40504000C4160020FC0E00207C160020CC0E002008B50178FFF73CFF814201D10C2008BD002914D0072069460870FFF70BFF012807D10121684600F0D9F8012801D0092063
:4050800008BDFFF7E1FE02F011FA012011E0FFF7F9FE012806D1684601F046FE6846007800F0A0FA02F0F8F9FFF712FF0028FBD10220FFF763FE002008BD000070B505461B
:4050C0000C49007800244870FFF702FF012803D1FFF710FF022803D3284602F063FA07E0284600F05DF8040002D1034801214170204670BDCC0E00208417002038B56846DF
:405100000CF0B6F9002801D01F2038BD01210098C90201804180002505714571857107214173857302F08EF9009C202200212046FDF70CF825702A460021601CFDF706F84B
:40514000204602F071F9204602F02CFA00980CF0F9F9062200210448FCF7F8FF02480C388560002038BD0000D00E0020F8B504460025684600950CF07BF9002801D0072570
:405180000AE0064E009830602278611C401CFCF7D4FF3168207808702846F8BDC40E0020F8B504460025684600950CF061F9002801D007250AE0064E009870602278611CFB
:4051C000401CFCF7BAFF7168207808702846F8BDC40E00200346084800B5834209D8184600F014FE002804D00089984201D1012000BD002000BD0000FF0E0000074A917901
:40520000491C8906890E917138220A4092014907090E11430843024908407047C4160020FF0E0000C006C00E70470000F8B507460E4600240D4803E0002C01D0002500E05C
:4052400005462979002905D0641C2406240EF3D00020F8BD0021204601F024F92E712046FFF7CCFF28813C700120F8BDE416002010B503F0F7F90222002100F003F801F066
:4052800061FF10BD10B5094B40074907000F090F185A595A40185043C0086421FCF722FE002800D1012080B210BD000044410100F7B53D20405C88B015460C46002802D057
:4052C0002878042802D200200BB0F0BD6946087200262046FFF768FA012800D00126204603A938300191009023460327A17E34333246206A03F0D2FA02A8089900900B46B7
:40530000019120463A4603A9243003F057F902466846007A2870204601F0B0F81046D3E7FFB587B00C4605461078694608723D20005D1746002826D000262046FFF734FA7D
:40534000012800D00126204603A93830019100902346A17E34333246206A03F09FFA02A80090291D019120462B1D03A924300A9A03F024F902006846007A388002D1204665
:4053800001F07CF810460BB0F0BDF0B505463C20405C89B016460C4600280CD0307869460873002806D000272046FFF7FDF9012803D003E01F2009B0F0BD01270320089047
:4053C000204604A93830019100902346E17E34333A46E06903F062FA6846007B03A928180290009120462B46019504A92430089A03F018F902466846007B3070204601F015
:4054000047F81046D7E7FFB505463C20405C89B016460C46002810D0084601F0A3F801280BD0308869468883002809D000272046FFF7BAF9012805D005E000200DB0F0BD3F
:405440000220FBE70127204603A93830019100902346E17E34333A46E06903F01FFA291D2B1D07A8129A6D4607C5204603A924300C9A03F0D7F802466846808B3080204613
:4054800001F006F81046D9E770B50D460446FFF78BF901280AD0E87AA97A00020143A07801F03CFD012808D0002070BD00222421204602F079FD242070BD28214C2001559C
:4054C000204600F0B1FB282070BD0000002801D0002000E003484030C07F012800D0002070470000E41600200146002049070ED50021084B03E0002901D0002200E01A460B
:405500001279022A04D0491C0906090EF3D0704701207047E41600200146002049070ED50021084B03E0002901D0002200E01A461279022A04D0491C0906090EF3D070470C
:4055400001207047E416002010B5044680346068002803D00CF00AF80020606010BD4030417070474030817070474030017070470171704792001018C166704770B53C2539
:4055800001F0A8F9040004D020460021433001F065FCFF222946204600F0E2FB002C02D0A07801F019F970BD10B5002801D0002000E00348002802D0008903F0BDFE10BD25
:4055C000E416002010B5002801D0002000E00448002804D00179072901D100F047F810BDE416002010B501F075F9002802D0807801F0F2F810BD00207047000070B50546F4
:40560000008A00281ED01049F122897A1140C90618D5294640314A8A098A521C4A4392B2D10800D10121540801E0621A94B2A042FBD9FEF745FD012804D1298AA8782246D7
:4056400001F042FD70BD00007C16002010B50023054C0B60248A944204D992001018C26E0A60C36610BD0000B017002038B5044600200090A079002814D14020015D0529EC
:4056800001D00E290ED168460BF002FF002809D12046009902F066FC03481021C28A2046FFF7BEFB38BD00007C16002010B50B4604460146184602F0DFF8002802D0204652
:4056C0000BF04AFF10BD13B5044601AA11460620FDF7C4FD6846818861811CBD002800D10220704770470000F8B504462346401D543300909A1EA078911E01F031FB2546D4
:405700004035A88A298A8000FCF7ECFB401E81B2688A884203D96982A07801F0F1FF698A8C20015120460021433001F097FB27480088E88102F096FFE989891C8AB2617926
:40574000FFF7A0FD01F0FEFC02F08CFF2A8A6179FFF798FD074601F0E9FC688A002806D01B49088A032212021043088202E0002001F0BAFF1648803801886E8A002E0CD0A9
:40578000304648431349FCF797FC0004000C01D0401C80B21049488002E00F4800214180288A704381B2A07801F00AFFFF2228374932B9B21346204602F0A8FCE98AA0786B
:4057C00001F07EFEA07801F037FAF8BD80102E40E0112E4071020000D60E00207FB504468034616805460E46183108226846FCF7A4FC31462031082202A8FCF79EFC1021D1
:4058000068460BF0DFFD6068102108300BF0DAFD60682B46083024331022694602F0EEFE7FBD10B504460821FFF705FB10212046FFF701FB207905281FD006281DD0082866
:405840001AD12189002003F0EFFC072020712046FEF7AAFF014620464030012913D00E21017000210176204600F0C8FF2046FFF76BFE2046FFF7C2FE10BD208901220021BF
:4058800003F0B6FCE1E70521EAE70000FFB581B01F4604460821FFF7CEFA10212046FFF7CAFA2079082803D0092804D0042203E00422012501E009220025204600F03EFEFF
:4058C000264600204036307022712046FFF73CFE0398002D02D0012808D00BE001280AD120890022029903F083FC04E02189029803F09AFC012700203076012F04D0204672
:4059000000F07CFF05B0F0BD02983073204602F077FB054605480121C28A2046FFF780FA002DEFD109202071ECE700007C16002070B50C460546FEF737FF012809D1082172
:405940002846FFF778FA0023012221462846FFF79DFF70BD10B5044600F0F0FD2046FFF7F3FD00214034217010BD70B505461A24FEF71AFF012809D108212846FFF75BFAAB
:405980000023012221462846FFF780FF70BD0000F8B50446002000900E4668460BF078FD002801D00D20F8BD8420005908212030009D00F026FA20460421383000F021FA15
:4059C000002E02D1204600F007FE2946204602F058FA0E480821C28A2046FFF721FA204600F07DFF25464035002808D0204600F023F8002801D0092028700020F8BD082016
:405A00002870204600F0E6FFF7E700007C160020014610B540310A460978082906D0092907D00A2901D100F091F810BD0B20107010BD00F001F810BD70B5044600792546D9
:405A40004035052805D0062803D008280FD00C2070BD03220621204602F0A6FA0D480821C28A2046FFF7DCF91120287010E006202873204602F0C4FA0646AA8A0A20424348
:405A800001212046FFF7CCF9002E01D109202071002070BD7C16002038B504460020009068460BF0F5FC002801D00D2038BD2046009D00F0BDF908202071204600F08CFD0D
:405AC0002946204602F010FA00213D2001550F2040210855204600F07DFF002038BD00B5024600F02BFD10214032117000BD10B50446FEF759FE012809D04020005D1128E4
:405B000005D100231A4606212046FFF7BFFE10BD10B5FFF786FE10BD38B504460021684600910BF0B5FC00280CD12046009902F05CFA05480821C28A2046FFF771F90D20AF
:405B40004034207038BD00007C16002038B504460021684600910BF09BFC002801D00D2038BD2046009902F035FA05480821C28A2046FFF755F90C2040342070002038BD65
:405B80007C16002000787047F8B5002569460D70002801D0002400E01F4C002C18D0204600F0D5FC002813D0207903280BD005280CD026464036B18AA07801F00BFDB0785A
:405BC000012806D01DE0042020711DE006202071F8BD0021204601F06CFE274680373868002802D00BF0C2FC3D600020B0702079072802D12046FFF701FD0221204600F0E7
:405C000003FF20790428E3D1207A694608703420FEF770FBF8BD0000E416002010B54C22115400F04CF810BD10B50446FF21FFF702F909202071A07801F0F2FC10BD00006E
:405C400038B5FF216A461180002801D0002400E0084C002C0DD011460620FDF7FFFA684601882046FFF72FFD03480068C1692046884738BDE4160020180F002010B50446DC
:405C80008079002809D022214C200155FF212046FFF7D1F8204600F012F810BD10B5037902464032002B03D01173092B02D003E0002100E02221117300F001F810BDFEB5DC
:405CC00004460089002700902781207926464036002817D0012815D002280AD112E002AA01A9204601F0B6FD002807D101980BF033FC204601F0D6FD0028F0D02046FEF753
:405D000097FBB776254680352868002802D00BF02DFC2F606868002802D00BF027FC6F60317B002919D0009800F064F8A078002100F0A4FF2046FFF79BFAA07801F0D8F858
:405D4000A07800F049FDFF212046FFF774F80B20FFF714F800F07AFCFEBD1F213173E2E7F8B517460E46054602F078FC04003CD020460C3001F062F82046062200211830EF
:405D8000FCF7E4F92046062200211230FCF7DEF91648224600683946436A28469847074626702846FEF700FD012148406070002D10D02889608028464030C1782171002E7F
:405DC0000FD169796171018AE180418A2181808A608106E00648008BC005C00F2071002060803946204603F0A2F9F8BDFC0E002000102E400A4610B50146002003F0B4FAFA
:405E000010BD10B50BF0BAF810BD000000B50146FFF708FA002801D0002000E00348002802D002898A4200D0002000BDE416002038B5044680346068002806D168460BF0AB
:405E400037FB002801D100986060606838BD000010B5014600F086FB0128887802D0FEF7ADFC10BD90214843024940186030007F10BD0000C416002070B50546044640351A
:405E8000A87F012811D1A1789020084A484380186030067F3046FEF75FFE002805D10220A877A078314601F0DDF870BDC416002010B50C4CA07A002813D0FEF7F9FE0A485A
:405EC000027F417F408B00F0C9FB012809D10020A07200F03FFF05498989090B01D000F03BFA10BD94170020C4160020A0102E4070477047490510B5490F0B00FCF72AFB69
:405F0000060704080C0C0F073E21FFF787FE10BD0821FFF7C3FE10BDFFF7D1FE10BDFFF7ADFE10BDF8B507460025002D01D0002600E0204E00F0B8FE3046403044890021BB
:405F4000418100F0D5FE304600F001FB01282BD1A00702D52846FFF717FEE00602D52846FFF76EFEA00601D5FEF7A2FE600601D500F026FB200602D5284600F01DF860075C
:405F800002D5284600F02CFA380402D52846FFF719FB780402D52846FFF706FBE00703D021463046FFF7A6FF6D1C2D062D0EBCD0F8BD0000E4160020F8B5002801D00024F5
:405FC00000E0284C002C4BD025464035A878012846D1FF278820493700593E46002805D02149897A890601D5878AC68A2046FEF7DBFB012834D002F035FB2A8A6179FFF767
:4060000041F9009001F092F800983346283081B23A46204602F07AF8E98AA07801F050FA12480188688A124E002810D048431149FCF742F80004000C01D0401C80B27080C1
:40604000A07DC107C90F002001F020FB01E000207080288A698A484381B2A07801F0B0FAF8BD0000E41600207C16002060112E40D60E0020710200000149096809680847DE
:40608000180F002070B50D460026194A0146002801D0002401E014462034002C26D0204600F060FA01280AD19020484380186030007FFEF751FD002801D101F021FF0D484A
:4060C000006881692046884700280CD020464030817EA94202D3491B817600E086762089294603F0E2F8204600F074FC70BD0000C4160020180F002070B503460088FFF744
:4061000085FE040013D000F022FA00280FD02079092819D02546997840352973204601F06FFF0646A878012803D0AA8A02E0022070BDEA880A20424301212046FEF770FE04
:40614000002E01D109202071002070BD0EB5002217216B460292198100905A810120029B00990BF0A3FA0EBDF8B518480024807A002822D1164E0025B089000B22E020467C
:4061800000F086FE1249A039401807882A462146384600F063FA012810D00E480122478305770A4944778A72002D01D0002000E02030002801D000F00DFCF8BDB089000BA3
:4061C000641CE4B20028DAD1F8BD000094170020A0102E40C416002010B50088FFF716FE002809D0014640310C460978082905D00B2903D00C2010BD022010BDFFF71CFC38
:40620000002801D009202070002010BD70B503460088FFF7FBFD040008D0254640352878082805D00B2803D00C2070BD022070BD8420005910220830991CFBF77EFF2046DB
:40624000FFF7CCFA2878082804D02046FFF77EFC002801D00A202870204600F0BBFB002070BD000010B50C46002121700088FFF7CDFD03000BD000F06AF9002807D0094842
:40628000F121807A0840C00603D4112010BD022010BD022020701A8A1889002103F080F8002010BD7C160020F8B50F46002100910088FFF7ABFD040012D000F048F90028C5
:4062C0000ED0E079410641D4617E02264A07002A08DB8907402500291ADA2843E07135E00220F8BD02F0BAF90021017021894180A1898180217E4170E189C1803E7005462B
:406300000178134802F026FD284602F0EDFF1DE0204600F02DF9012806D068460BF0B8F8002803D00720F8BD2A20F8BDE07900992843E071204601F08DFE607E042130437B
:4063400060760448C28A2046FEF76AFD0020F8BD1D0400007C1600203EB500220F236C460292238100910190628169460EC900200BF09CF93EBD0000F8B50F46054600F0A1
:40638000A9FA040025D003202071254600264035EE76E6702046FFF7A7F901F07DF80920FEF7ECFCA07800F091FD0121204600F02BFB2E706E70AE703A4600212046FFF79A
:4063C000CFFC0649887B401C8873A078FFF754FEF8BD284601F024F9F8BD0000C416002010B5002801D0002000E0094800280DD0014640310A464978022901D1002151702D
:40640000807DC107C90F002001F040F910BD0000E416002070B503460D460088FFF7F6FC04000BD000F093F8002807D01248F121807A0840C00603D4112070BD022070BD0C
:4064400020464030418A008A491C41430804C10C5888884201D2122070BD20822079072802D12046FFF7CAF8022028702089002102F0BEFF002070BD7C160020016A491CF6
:40648000016204D1817E491C4906490E81767047C169491CC16104D1C17E491C4906490EC1767047F0B5074687B003A8009005A800260D460190002F01D0002400E01B4CA8
:4064C000002C05D06846FBF797FE002803D00BE0022007B0F0BD68460089C00704D1902200212046FBF732FE114829460068826820469047050016D1A77066762746267192
:4065000040373E70204600F019F8204601F0C6F9084820820848BE77807AF121084000D001202075E682E8B2D3E70000E4160020180F0020B80B00007C1600200021016252
:406540008176C161C17620300177417770470079002805D0012803D0022801D001207047002070474030807F002800D00120704740300078002807D0012805D0052803D054
:406580000E2801D0012070470020704710B5807801F004F9002800D0012010BD074A0146927B0020002A07D040314A78022A02D08978012900D1012070470000C4160020CF
:4065C00010B500F0C7FB03498989090B01D0FFF7C3FE10BDA0102E4070B5054604464035A87F002825D1FF206075A0789021154A484380186030417F9023491CC9B24177F1
:40660000A0785843104B8018DB896030994201D300214177A0789021484380186030467F0677A1783046FEF797FA002802D00120A87770BD0220A877A078314600F012FD2F
:4066400070BD0000C4160020B01700200020401C0006000EFBD0002070470000F0B515468207920F85B0000A02926A469080002D01D0002400E0564C002C28D0084600F017
:4066800007FC07466846808800280BD00298012843D0022841D003280BD03D20005D012879D08FE04B48381801882046FFF70BF888E00020029002A80AF0CAFE002807D0CF
:4066C0003D20005D012802D12046FFF7D7FE7CE06846029E8388324600213846FCF7B2FC3C48381801882046FEF7EDFF284600F0B5FA01AA21463046FEF7DAFD002806D043
:4067000030460AF015FF3D204C21085531E0F5773146204601F02AFA57E0002000902089039068460AF084FE002802D0002005B0F0BD6846009E8388321D00213846FCF73E
:4067400081FC2448381801882046FEF7BCFF284600F084FA2046FFF7FAFE002805D025464035287E002810D107E030460AF0D6FE2BE02046FFF758FA27E001AA2146304612
:40678000029BFEF7CDFD002806D030460AF0C6FE3D202873EDE712E00298FEF7A3FF0399317003990001090A0143717068468088B070000AF0703046FFF7C8FC05E020468F
:4067C000FFF75CFE284600F049FA0120AFE70000E416002000102E4010B5074A917B002901D0491E91730021FFF75CFE002801D0002010BD012010BDC4160020F8B5074699
:4068000006464037B87F00282DD0B078902100904843234945186035287F0099FEF7B1F901281ED0287F401CC4B21E48C089A04200D800240020B877FF276F772F77A877CB
:4068400002460146009800F079FD717DFF2903D0304600F0E4FF777501F052FB0025114F19E00320B877F8BD00200090224669463046FEF7EBFE0099002904D0FF231A4677
:406880003046FEF796F9641CF889E4B2A04200D800246D1CEDB2F889A842E5D8F8BD0000C4160020B017002010B502460021084B03E0002901D0002000E018460479944274
:4068C00004D0491C0906090EF3D0002010BD0000E416002000B50120FFF7E6FF00BD10B5044601F0BBFE2189018080346168416061682831816002F0B1FC10BDF7B5064698
:40690000087982B00C46092807D0A078F0770846FFF728FE012806D010E030460AF01CFE022005B0F0BDA1789020294A484380186030007FFEF710F9012810D0A078FEF7E2
:40694000C5FD01280BD037780121304601F084FA25462035062F38D00B2F0FD107E06846027C21463046FEF7A1FE0D20D9E72046FDF71AFF012801D1002028772046FFF78A
:4069800067FA054604AA21463046FEF7FEFC01205F2108556946097C002001910090A07833463A46294600F007FB69460A7CA0780323294600F048FEA0782946FDF716FD25
:4069C00030460AF0C9FD0020ABE70120D5E70000C416002010B502464032937F0021002B03D1927E002A00D00121064A927A002A00D000210279092A00D10121807800F0FB
:406A000065FE10BD9417002070B50C460546FDF7CBFE00280BD1012C06D92879092806D02846FFF7B3FD0446002C02D004E0012402E0A87DC007FAD1A87DC107C90F2046FB
:406A400000F024FE70BD0000012807D0082804D104480282034808300180704701488038FAE70000A0102E40014908817047000000102E4010B50446FF20F130012C01D1F1
:406A8000FF20D530002200F053FE044A108A044980B2A0430880108210BD000000102E40DA0E0020034B198A034A89B2814311801982704700102E40DA0E002010B50446E3
:406AC000012802D0082C07D102E0FF20D53001E0FF20F13000F024FE0348018A034A89B221431180018210BD00102E40DA0E0020034B198A034A89B201431180198270478D
:406B000000102E40DA0E0020F8B505460120A84086B214460F46012231467C2000F008FE3A463146782000F003FE6078267800020643E078A278000202436079237900024A
:406B400003430C2045430D2080010549281844182680001D44182280001D40180380F8BD00102E40401880B270470000CB065B0E0343480901021943D00108430121C9021D
:406B8000084301490881704780142E404278037812021343084A1382C37880781B021843908248780B78000203431383C8788978000201439183704700142E40024A1080EA
:406BC000000C90801181704700142E40044A002180180288491C89B21029FAD37047000000102E40024A10820148803081817047A0102E407047000010B5054A10820846E9
:406C000000F0BAFD024A0021A03A8018018010BDA0102E4010B50B46044600F005F819462046FFF7DFFF10BD024A10820148803001817047A0102E4010B504490882FF20C6
:406C4000002220211D3000F073FD10BDA0102E400149088070470000C0102E40000202494D3008807047000000102E400249888A0422904388827047C0112E4010B5084B5D
:406C8000074C0202A03B0029208202D075321A8010BD04490020088088807632F7E70000A0102E40201A2E4000B5034908884880FFF7F8FE00BD0000DA0E002010B50120BE
:406CC000FDF734FB01495020088010BD00102E4006490E220028888806D01043888003495120C039088070479043F7E7C0102E4000B502484088FFF7FBFE00BDDA0E00209D
:406D000010B5FCF79DFB10BD014952200880704700102E40884201D8081A03E00022D243101A401880B2704700210170704700000748808806492039098B884201D8081AD2
:406D400003E00022D243101A401880B27047000020112E400148008AC0B27047A0102E4070B5084C049D2082074804890548603006880E8001891180808818806007400FD3
:406D8000287070BDA0102E40E0112E400148008970470000C0102E4000280FD00D4A108B0870000A4870908B8870000AC8700948203000880871000A48717047064A10883E
:406DC0000870000A487090888870000AC8701089F0E7000040102E40C0112E4000B5024A00F004F800BD0000FF7F000000B51346FFF790FF984201D8022800D2002000BD53
:406E00000148008A70470000001A2E40024908820248008970470000A0102E40001A2E40014880887047000020102E40024908820148803000887047A0102E40064B1A8976
:406E400099891B8A0270120A42708170090AC1700371190A4171704760102E40012904D00549098BC90B017070470349403109898907C90FF7E7000000102E400249088234
:406E80000248008970470000A0102E40201A2E400148408970470000B0170020024908820248808970470000A0102E40001A2E40044A10820448028980894843101880B2A8
:406EC00070470000A0102E40B01700209021074B414300B5C918FF2260314A770A7700228A77114600F02AFA00BD0000C416002090225043074A10B58018FF216030417725
:406F00000177002181770448418EFF201D3000F007FC10BDC41600207C16002000B5044A1082034880308088022200F003F800BDA0102E4010B50023884201D8081A03E0BB
:406F40000024E443201A4018044980B2884201D8824200D90123184610BD0000FF7F0000024880880006C00F70470000C0102E4002488089C007C00F70470000201A2E4044
:406F800070B55478157824022543D47888232602947834435679127936023243002900D09823044908820348A038181805808480028170BDA0102E40FFB581B014460D4655
:406FC00007460A9E0B9BFFF773FF002E0AD0009333460021049AFCF7C5F805484019C45505B0F0BD0021049AFCF7A2F8F5E70000DE0E002070B502460448054D8088082477
:407000002C800B460021FCF793F870BDB0170020A0142E4010B5212402466401044953200880102300212046FCF782F810BD000000102E40417802780902044B0A431A8396
:40704000C1788078090208439883704760142E40034A1082802001430148803001817047A0102E40054A1082044A6032908B0009000108439115084390837047A0102E40B8
:4070800030B500210F4B0A46012809D0032802D005280AD107E04021198102210A2204E004210C2201E004210D221882054C20342088C0B205460D42FAD022800021198261
:4070C00030BD000080142E4010B5044607480482074801808280032189030820FFF7EEFC200202497530A039088010BDA0102E40201A2E40054A1082044A603211830002D6
:4071000002494B30A039088070470000A0102E40054A491E1082044A60321183000202494C30A03908807047A0102E400349884200D908460249088070470000FF0F0000C3
:4071400060112E400349884200D908460249888070470000FF0F000060112E408823002900D09823084908820748A038191808881070000A507088889070000AD0700889A5
:407180001071000A50717047A0102E4010B51446024606480B46C0880021FBF7AFFF012C02D103495420088010BD0000B017002000102E40064A11880170090A41709188EE
:4071C0008170090AC1700349542008807047000080142E4000102E400121814010B589B200227C2000F0A4FA10BD0000FEB5FF210120FFF73FFCFF210820FFF73BFC3020F5
:40720000FFF750FC3F48802101803F483F4D00784007400F02286FD001286BD100202880002211460320FCF719F8394E3949B08D8882384F002420373248A0300482308F2B
